{
  "_format": "hh-sol-artifact-1",
  "contractName": "Web3SNS",
  "sourceName": "contracts/Web3SNS.sol",
  "abi": [
    {
      "anonymous": false,
      "inputs": [
        {
          "indexed": false,
          "internalType": "uint256",
          "name": "postId",
          "type": "uint256"
        },
        {
          "indexed": false,
          "internalType": "uint256",
          "name": "likes",
          "type": "uint256"
        }
      ],
      "name": "NewLike",
      "type": "event"
    },
    {
      "anonymous": false,
      "inputs": [
        {
          "indexed": false,
          "internalType": "uint256",
          "name": "postId",
          "type": "uint256"
        },
        {
          "indexed": false,
          "internalType": "address",
          "name": "from",
          "type": "address"
        },
        {
          "indexed": false,
          "internalType": "string",
          "name": "message",
          "type": "string"
        },
        {
          "indexed": false,
          "internalType": "uint256",
          "name": "timestamp",
          "type": "uint256"
        },
        {
          "indexed": false,
          "internalType": "uint256",
          "name": "likes",
          "type": "uint256"
        }
      ],
      "name": "NewPost",
      "type": "event"
    },
    {
      "inputs": [
        {
          "internalType": "uint256",
          "name": "",
          "type": "uint256"
        }
      ],
      "name": "TweetIdToPost",
      "outputs": [
        {
          "internalType": "uint256",
          "name": "postId",
          "type": "uint256"
        },
        {
          "internalType": "address",
          "name": "from",
          "type": "address"
        },
        {
          "internalType": "string",
          "name": "message",
          "type": "string"
        },
        {
          "internalType": "uint256",
          "name": "timestamp",
          "type": "uint256"
        },
        {
          "internalType": "uint256",
          "name": "likes",
          "type": "uint256"
        }
      ],
      "stateMutability": "view",
      "type": "function"
    },
    {
      "inputs": [],
      "name": "getAllPosts",
      "outputs": [
        {
          "components": [
            {
              "internalType": "uint256",
              "name": "postId",
              "type": "uint256"
            },
            {
              "internalType": "address",
              "name": "from",
              "type": "address"
            },
            {
              "internalType": "string",
              "name": "message",
              "type": "string"
            },
            {
              "internalType": "uint256",
              "name": "timestamp",
              "type": "uint256"
            },
            {
              "internalType": "uint256",
              "name": "likes",
              "type": "uint256"
            }
          ],
          "internalType": "struct Web3SNS.Post[]",
          "name": "",
          "type": "tuple[]"
        }
      ],
      "stateMutability": "view",
      "type": "function"
    },
    {
      "inputs": [
        {
          "internalType": "uint256",
          "name": "_index",
          "type": "uint256"
        }
      ],
      "name": "likesDiscrement",
      "outputs": [
        {
          "internalType": "uint256",
          "name": "",
          "type": "uint256"
        }
      ],
      "stateMutability": "nonpayable",
      "type": "function"
    },
    {
      "inputs": [
        {
          "internalType": "uint256",
          "name": "_index",
          "type": "uint256"
        }
      ],
      "name": "likesIncrement",
      "outputs": [
        {
          "internalType": "uint256",
          "name": "",
          "type": "uint256"
        }
      ],
      "stateMutability": "nonpayable",
      "type": "function"
    },
    {
      "inputs": [
        {
          "internalType": "string",
          "name": "_message",
          "type": "string"
        }
      ],
      "name": "tweet",
      "outputs": [],
      "stateMutability": "nonpayable",
      "type": "function"
    }
  ],
  "bytecode": "0x608060405234801561001057600080fd5b50611185806100206000396000f3fe608060405234801561001057600080fd5b50600436106100575760003560e01c8063305611001461005c5780634b5cb3ab1461007a5780638464a7c7146100aa578063f6eb36cd146100da578063fb46d4c51461010e575b600080fd5b61006461012a565b6040516100719190610c85565b60405180910390f35b610094600480360381019061008f9190610ce7565b61028f565b6040516100a19190610d23565b60405180910390f35b6100c460048036038101906100bf9190610ce7565b61037c565b6040516100d19190610d23565b60405180910390f35b6100f460048036038101906100ef9190610ce7565b610469565b604051610105959493929190610d97565b60405180910390f35b61012860048036038101906101239190610f26565b610547565b005b60606001805480602002602001604051908101604052809291908181526020016000905b8282101561028657838290600052602060002090600502016040518060a0016040529081600082015481526020016001820160009054906101000a900473ffffffffffffffffffffffffffffffffffffffff1673ffffffffffffffffffffffffffffffffffffffff1673ffffffffffffffffffffffffffffffffffffffff1681526020016002820180546101e190610f9e565b80601f016020809104026020016040519081016040528092919081815260200182805461020d90610f9e565b801561025a5780601f1061022f5761010080835404028352916020019161025a565b820191906000526020600020905b81548152906001019060200180831161023d57829003601f168201915b50505050508152602001600382015481526020016004820154815250508152602001906001019061014e565b50505050905090565b60006002600083815260200190815260200160002060040160008154809291906102b890610fff565b91905055506103126040518060400160405280601081526020017f4e6577204c696b657320436f756e743a000000000000000000000000000000008152506002600085815260200190815260200160002060040154610796565b7f47cbd291b929127ac2648b2c1375c212358959bcb5d17f09fafd0e923a900fe06002600084815260200190815260200160002060000154600260008581526020019081526020016000206004015460405161036f929190611029565b60405180910390a1919050565b60006002600083815260200190815260200160002060040160008154809291906103a590611052565b91905055506103ff6040518060400160405280601081526020017f4e6577204c696b657320436f756e743a000000000000000000000000000000008152506002600085815260200190815260200160002060040154610796565b7f47cbd291b929127ac2648b2c1375c212358959bcb5d17f09fafd0e923a900fe06002600084815260200190815260200160002060000154600260008581526020019081526020016000206004015460405161045c929190611029565b60405180910390a1919050565b60026020528060005260406000206000915090508060000154908060010160009054906101000a900473ffffffffffffffffffffffffffffffffffffffff16908060020180546104b890610f9e565b80601f01602080910402602001604051908101604052809291908181526020018280546104e490610f9e565b80156105315780601f1061050657610100808354040283529160200191610531565b820191906000526020600020905b81548152906001019060200180831161051457829003601f168201915b5050505050908060030154908060040154905085565b6105856040518060400160405280600f81526020017f6d616b696e672074776565742e2e2e0000000000000000000000000000000000815250610832565b600061059160006108cb565b905060004290506000806040518060a001604052808581526020013373ffffffffffffffffffffffffffffffffffffffff16815260200186815260200184815260200183815250905060018190806001815401808255809150506001900390600052602060002090600502016000909190919091506000820151816000015560208201518160010160006101000a81548173ffffffffffffffffffffffffffffffffffffffff021916908373ffffffffffffffffffffffffffffffffffffffff16021790555060408201518160020190805190602001906106739291906109b7565b506060820151816003015560808201518160040155505080600260008681526020019081526020016000206000820151816000015560208201518160010160006101000a81548173ffffffffffffffffffffffffffffffffffffffff021916908373ffffffffffffffffffffffffffffffffffffffff160217905550604082015181600201908051906020019061070b9291906109b7565b50606082015181600301556080820151816004015590505061074660405180606001604052806024815260200161112c6024913933866108d9565b6107506000610978565b7fe535a02a01920b38061e7785d5f3d4688d895a51cc21bb9e09b59a11d3befcfb8433878686604051610787959493929190610d97565b60405180910390a15050505050565b61082e82826040516024016107ac92919061109b565b6040516020818303038152906040527fb60e72cc000000000000000000000000000000000000000000000000000000007bffffffffffffffffffffffffffffffffffffffffffffffffffffffff19166020820180517bffffffffffffffffffffffffffffffffffffffffffffffffffffffff838183161783525050505061098e565b5050565b6108c88160405160240161084691906110cb565b6040516020818303038152906040527f41304fac000000000000000000000000000000000000000000000000000000007bffffffffffffffffffffffffffffffffffffffffffffffffffffffff19166020820180517bffffffffffffffffffffffffffffffffffffffffffffffffffffffff838183161783525050505061098e565b50565b600081600001549050919050565b6109738383836040516024016108f1939291906110ed565b6040516020818303038152906040527f0d26b925000000000000000000000000000000000000000000000000000000007bffffffffffffffffffffffffffffffffffffffffffffffffffffffff19166020820180517bffffffffffffffffffffffffffffffffffffffffffffffffffffffff838183161783525050505061098e565b505050565b6001816000016000828254019250508190555050565b60008151905060006a636f6e736f6c652e6c6f679050602083016000808483855afa5050505050565b8280546109c390610f9e565b90600052602060002090601f0160209004810192826109e55760008555610a2c565b82601f106109fe57805160ff1916838001178555610a2c565b82800160010185558215610a2c579182015b82811115610a2b578251825591602001919060010190610a10565b5b509050610a399190610a3d565b5090565b5b80821115610a56576000816000905550600101610a3e565b5090565b600081519050919050565b600082825260208201905092915050565b6000819050602082019050919050565b6000819050919050565b610a9981610a86565b82525050565b600073ffffffffffffffffffffffffffffffffffffffff82169050919050565b6000610aca82610a9f565b9050919050565b610ada81610abf565b82525050565b600081519050919050565b600082825260208201905092915050565b60005b83811015610b1a578082015181840152602081019050610aff565b83811115610b29576000848401525b50505050565b6000601f19601f8301169050919050565b6000610b4b82610ae0565b610b558185610aeb565b9350610b65818560208601610afc565b610b6e81610b2f565b840191505092915050565b600060a083016000830151610b916000860182610a90565b506020830151610ba46020860182610ad1565b5060408301518482036040860152610bbc8282610b40565b9150506060830151610bd16060860182610a90565b506080830151610be46080860182610a90565b508091505092915050565b6000610bfb8383610b79565b905092915050565b6000602082019050919050565b6000610c1b82610a5a565b610c258185610a65565b935083602082028501610c3785610a76565b8060005b85811015610c735784840389528151610c548582610bef565b9450610c5f83610c03565b925060208a01995050600181019050610c3b565b50829750879550505050505092915050565b60006020820190508181036000830152610c9f8184610c10565b905092915050565b6000604051905090565b600080fd5b600080fd5b610cc481610a86565b8114610ccf57600080fd5b50565b600081359050610ce181610cbb565b92915050565b600060208284031215610cfd57610cfc610cb1565b5b6000610d0b84828501610cd2565b91505092915050565b610d1d81610a86565b82525050565b6000602082019050610d386000830184610d14565b92915050565b610d4781610abf565b82525050565b600082825260208201905092915050565b6000610d6982610ae0565b610d738185610d4d565b9350610d83818560208601610afc565b610d8c81610b2f565b840191505092915050565b600060a082019050610dac6000830188610d14565b610db96020830187610d3e565b8181036040830152610dcb8186610d5e565b9050610dda6060830185610d14565b610de76080830184610d14565b9695505050505050565b600080fd5b600080fd5b7f4e487b7100000000000000000000000000000000000000000000000000000000600052604160045260246000fd5b610e3382610b2f565b810181811067ffffffffffffffff82111715610e5257610e51610dfb565b5b80604052505050565b6000610e65610ca7565b9050610e718282610e2a565b919050565b600067ffffffffffffffff821115610e9157610e90610dfb565b5b610e9a82610b2f565b9050602081019050919050565b82818337600083830152505050565b6000610ec9610ec484610e76565b610e5b565b905082815260208101848484011115610ee557610ee4610df6565b5b610ef0848285610ea7565b509392505050565b600082601f830112610f0d57610f0c610df1565b5b8135610f1d848260208601610eb6565b91505092915050565b600060208284031215610f3c57610f3b610cb1565b5b600082013567ffffffffffffffff811115610f5a57610f59610cb6565b5b610f6684828501610ef8565b91505092915050565b7f4e487b7100000000000000000000000000000000000000000000000000000000600052602260045260246000fd5b60006002820490506001821680610fb657607f821691505b60208210811415610fca57610fc9610f6f565b5b50919050565b7f4e487b7100000000000000000000000000000000000000000000000000000000600052601160045260246000fd5b600061100a82610a86565b9150600082141561101e5761101d610fd0565b5b600182039050919050565b600060408201905061103e6000830185610d14565b61104b6020830184610d14565b9392505050565b600061105d82610a86565b91507fffffffffffffffffffffffffffffffffffffffffffffffffffffffffffffffff8214156110905761108f610fd0565b5b600182019050919050565b600060408201905081810360008301526110b58185610d5e565b90506110c46020830184610d14565b9392505050565b600060208201905081810360008301526110e58184610d5e565b905092915050565b600060608201905081810360008301526111078186610d5e565b90506111166020830185610d3e565b6111236040830184610d14565b94935050505056fe747765657420627920257320772f20494420257320686173206265656e20706f73746564a2646970667358221220537350270df8a2064bf23f48d35c8f8f65fa8ddedaae5460e0f1f4eb2e40657064736f6c63430008090033",
  "linkReferences": {},
  "deployedLinkReferences": {}
}