{
  "_format": "hh-sol-artifact-1",
  "contractName": "Web3SNS",
  "sourceName": "contracts/Web3SNS.sol",
  "abi": [
    {
      "anonymous": false,
      "inputs": [
        {
          "indexed": false,
          "internalType": "address",
          "name": "from",
          "type": "address"
        },
        {
          "indexed": false,
          "internalType": "string",
          "name": "message",
          "type": "string"
        },
        {
          "indexed": false,
          "internalType": "uint256",
          "name": "timestamp",
          "type": "uint256"
        },
        {
          "indexed": false,
          "internalType": "uint256",
          "name": "likes",
          "type": "uint256"
        }
      ],
      "name": "NewPost",
      "type": "event"
    },
    {
      "inputs": [
        {
          "internalType": "uint256",
          "name": "",
          "type": "uint256"
        }
      ],
      "name": "TweetIdToPost",
      "outputs": [
        {
          "internalType": "address",
          "name": "from",
          "type": "address"
        },
        {
          "internalType": "string",
          "name": "message",
          "type": "string"
        },
        {
          "internalType": "uint256",
          "name": "timestamp",
          "type": "uint256"
        },
        {
          "internalType": "uint256",
          "name": "likes",
          "type": "uint256"
        }
      ],
      "stateMutability": "view",
      "type": "function"
    },
    {
      "inputs": [
        {
          "internalType": "uint256",
          "name": "_index",
          "type": "uint256"
        }
      ],
      "name": "dislike",
      "outputs": [
        {
          "internalType": "uint256",
          "name": "",
          "type": "uint256"
        }
      ],
      "stateMutability": "nonpayable",
      "type": "function"
    },
    {
      "inputs": [],
      "name": "getAllPosts",
      "outputs": [
        {
          "components": [
            {
              "internalType": "address",
              "name": "from",
              "type": "address"
            },
            {
              "internalType": "string",
              "name": "message",
              "type": "string"
            },
            {
              "internalType": "uint256",
              "name": "timestamp",
              "type": "uint256"
            },
            {
              "internalType": "uint256",
              "name": "likes",
              "type": "uint256"
            }
          ],
          "internalType": "struct Web3SNS.Post[]",
          "name": "",
          "type": "tuple[]"
        }
      ],
      "stateMutability": "view",
      "type": "function"
    },
    {
      "inputs": [
        {
          "internalType": "uint256",
          "name": "_index",
          "type": "uint256"
        }
      ],
      "name": "like",
      "outputs": [
        {
          "internalType": "uint256",
          "name": "",
          "type": "uint256"
        }
      ],
      "stateMutability": "nonpayable",
      "type": "function"
    },
    {
      "inputs": [
        {
          "internalType": "string",
          "name": "_message",
          "type": "string"
        }
      ],
      "name": "tweet",
      "outputs": [],
      "stateMutability": "nonpayable",
      "type": "function"
    }
  ],
  "bytecode": "0x608060405234801561001057600080fd5b50611076806100206000396000f3fe608060405234801561001057600080fd5b50600436106100575760003560e01c8063305611001461005c578063618f8bbb1461007a578063e82935da146100aa578063f6eb36cd146100da578063fb46d4c51461010d575b600080fd5b610064610129565b6040516100719190610bad565b60405180910390f35b610094600480360381019061008f9190610c0f565b610284565b6040516100a19190610c4b565b60405180910390f35b6100c460048036038101906100bf9190610c0f565b610325565b6040516100d19190610c4b565b60405180910390f35b6100f460048036038101906100ef9190610c0f565b6103c6565b6040516101049493929190610cbf565b60405180910390f35b61012760048036038101906101229190610e40565b61049e565b005b60606001805480602002602001604051908101604052809291908181526020016000905b8282101561027b57838290600052602060002090600402016040518060800160405290816000820160009054906101000a900473ffffffffffffffffffffffffffffffffffffffff1673ffffffffffffffffffffffffffffffffffffffff1673ffffffffffffffffffffffffffffffffffffffff1681526020016001820180546101d690610eb8565b80601f016020809104026020016040519081016040528092919081815260200182805461020290610eb8565b801561024f5780601f106102245761010080835404028352916020019161024f565b820191906000526020600020905b81548152906001019060200180831161023257829003601f168201915b50505050508152602001600282015481526020016003820154815250508152602001906001019061014d565b50505050905090565b60006002600083815260200190815260200160002060030160008154809291906102ad90610f19565b91905055506103076040518060400160405280601081526020017f4e6577204c696b657320436f756e743a0000000000000000000000000000000081525060026000858152602001908152602001600020600301546106d1565b60026000838152602001908152602001600020600301549050919050565b600060026000838152602001908152602001600020600301600081548092919061034e90610f43565b91905055506103a86040518060400160405280601081526020017f4e6577204c696b657320436f756e743a0000000000000000000000000000000081525060026000858152602001908152602001600020600301546106d1565b60026000838152602001908152602001600020600301549050919050565b60026020528060005260406000206000915090508060000160009054906101000a900473ffffffffffffffffffffffffffffffffffffffff169080600101805461040f90610eb8565b80601f016020809104026020016040519081016040528092919081815260200182805461043b90610eb8565b80156104885780601f1061045d57610100808354040283529160200191610488565b820191906000526020600020905b81548152906001019060200180831161046b57829003601f168201915b5050505050908060020154908060030154905084565b6104dc6040518060400160405280600f81526020017f6d616b696e672074776565742e2e2e000000000000000000000000000000000081525061076d565b60006104e86000610806565b9050600042905060008060405180608001604052803373ffffffffffffffffffffffffffffffffffffffff168152602001868152602001848152602001838152509050600181908060018154018082558091505060019003906000526020600020906004020160009091909190915060008201518160000160006101000a81548173ffffffffffffffffffffffffffffffffffffffff021916908373ffffffffffffffffffffffffffffffffffffffff16021790555060208201518160010190805190602001906105ba9291906108f2565b5060408201518160020155606082015181600301555050806002600086815260200190815260200160002060008201518160000160006101000a81548173ffffffffffffffffffffffffffffffffffffffff021916908373ffffffffffffffffffffffffffffffffffffffff16021790555060208201518160010190805190602001906106489291906108f2565b50604082015181600201556060820151816003015590505061068360405180606001604052806024815260200161101d602491393386610814565b61068d60006108b3565b7f43fec11134a36b976a658db5c8f54717e891f7991d13b8c1189f7fedfc0ba343338685856040516106c29493929190610cbf565b60405180910390a15050505050565b61076982826040516024016106e7929190610f8c565b6040516020818303038152906040527fb60e72cc000000000000000000000000000000000000000000000000000000007bffffffffffffffffffffffffffffffffffffffffffffffffffffffff19166020820180517bffffffffffffffffffffffffffffffffffffffffffffffffffffffff83818316178352505050506108c9565b5050565b610803816040516024016107819190610fbc565b6040516020818303038152906040527f41304fac000000000000000000000000000000000000000000000000000000007bffffffffffffffffffffffffffffffffffffffffffffffffffffffff19166020820180517bffffffffffffffffffffffffffffffffffffffffffffffffffffffff83818316178352505050506108c9565b50565b600081600001549050919050565b6108ae83838360405160240161082c93929190610fde565b6040516020818303038152906040527f0d26b925000000000000000000000000000000000000000000000000000000007bffffffffffffffffffffffffffffffffffffffffffffffffffffffff19166020820180517bffffffffffffffffffffffffffffffffffffffffffffffffffffffff83818316178352505050506108c9565b505050565b6001816000016000828254019250508190555050565b60008151905060006a636f6e736f6c652e6c6f679050602083016000808483855afa5050505050565b8280546108fe90610eb8565b90600052602060002090601f0160209004810192826109205760008555610967565b82601f1061093957805160ff1916838001178555610967565b82800160010185558215610967579182015b8281111561096657825182559160200191906001019061094b565b5b5090506109749190610978565b5090565b5b80821115610991576000816000905550600101610979565b5090565b600081519050919050565b600082825260208201905092915050565b6000819050602082019050919050565b600073ffffffffffffffffffffffffffffffffffffffff82169050919050565b60006109ec826109c1565b9050919050565b6109fc816109e1565b82525050565b600081519050919050565b600082825260208201905092915050565b60005b83811015610a3c578082015181840152602081019050610a21565b83811115610a4b576000848401525b50505050565b6000601f19601f8301169050919050565b6000610a6d82610a02565b610a778185610a0d565b9350610a87818560208601610a1e565b610a9081610a51565b840191505092915050565b6000819050919050565b610aae81610a9b565b82525050565b6000608083016000830151610acc60008601826109f3565b5060208301518482036020860152610ae48282610a62565b9150506040830151610af96040860182610aa5565b506060830151610b0c6060860182610aa5565b508091505092915050565b6000610b238383610ab4565b905092915050565b6000602082019050919050565b6000610b4382610995565b610b4d81856109a0565b935083602082028501610b5f856109b1565b8060005b85811015610b9b5784840389528151610b7c8582610b17565b9450610b8783610b2b565b925060208a01995050600181019050610b63565b50829750879550505050505092915050565b60006020820190508181036000830152610bc78184610b38565b905092915050565b6000604051905090565b600080fd5b600080fd5b610bec81610a9b565b8114610bf757600080fd5b50565b600081359050610c0981610be3565b92915050565b600060208284031215610c2557610c24610bd9565b5b6000610c3384828501610bfa565b91505092915050565b610c4581610a9b565b82525050565b6000602082019050610c606000830184610c3c565b92915050565b610c6f816109e1565b82525050565b600082825260208201905092915050565b6000610c9182610a02565b610c9b8185610c75565b9350610cab818560208601610a1e565b610cb481610a51565b840191505092915050565b6000608082019050610cd46000830187610c66565b8181036020830152610ce68186610c86565b9050610cf56040830185610c3c565b610d026060830184610c3c565b95945050505050565b600080fd5b600080fd5b7f4e487b7100000000000000000000000000000000000000000000000000000000600052604160045260246000fd5b610d4d82610a51565b810181811067ffffffffffffffff82111715610d6c57610d6b610d15565b5b80604052505050565b6000610d7f610bcf565b9050610d8b8282610d44565b919050565b600067ffffffffffffffff821115610dab57610daa610d15565b5b610db482610a51565b9050602081019050919050565b82818337600083830152505050565b6000610de3610dde84610d90565b610d75565b905082815260208101848484011115610dff57610dfe610d10565b5b610e0a848285610dc1565b509392505050565b600082601f830112610e2757610e26610d0b565b5b8135610e37848260208601610dd0565b91505092915050565b600060208284031215610e5657610e55610bd9565b5b600082013567ffffffffffffffff811115610e7457610e73610bde565b5b610e8084828501610e12565b91505092915050565b7f4e487b7100000000000000000000000000000000000000000000000000000000600052602260045260246000fd5b60006002820490506001821680610ed057607f821691505b60208210811415610ee457610ee3610e89565b5b50919050565b7f4e487b7100000000000000000000000000000000000000000000000000000000600052601160045260246000fd5b6000610f2482610a9b565b91506000821415610f3857610f37610eea565b5b600182039050919050565b6000610f4e82610a9b565b91507fffffffffffffffffffffffffffffffffffffffffffffffffffffffffffffffff821415610f8157610f80610eea565b5b600182019050919050565b60006040820190508181036000830152610fa68185610c86565b9050610fb56020830184610c3c565b9392505050565b60006020820190508181036000830152610fd68184610c86565b905092915050565b60006060820190508181036000830152610ff88186610c86565b90506110076020830185610c66565b6110146040830184610c3c565b94935050505056fe747765657420627920257320772f20494420257320686173206265656e20706f73746564a2646970667358221220b24be32637a5418457f80dc1dcafd306cad7dbebc23f4f28417cdb7b7daf326364736f6c63430008090033",
  "linkReferences": {},
  "deployedLinkReferences": {}
}