{
  "_format": "hh-sol-artifact-1",
  "contractName": "Web3SNS",
  "sourceName": "contracts/Web3SNS.sol",
  "abi": [
    {
      "anonymous": false,
      "inputs": [
        {
          "indexed": false,
          "internalType": "address",
          "name": "from",
          "type": "address"
        },
        {
          "indexed": false,
          "internalType": "string",
          "name": "message",
          "type": "string"
        },
        {
          "indexed": false,
          "internalType": "uint256",
          "name": "timestamp",
          "type": "uint256"
        },
        {
          "indexed": false,
          "internalType": "uint256",
          "name": "likes",
          "type": "uint256"
        }
      ],
      "name": "NewPost",
      "type": "event"
    },
    {
      "inputs": [
        {
          "internalType": "uint256",
          "name": "",
          "type": "uint256"
        }
      ],
      "name": "LikesCount",
      "outputs": [
        {
          "internalType": "uint256",
          "name": "",
          "type": "uint256"
        }
      ],
      "stateMutability": "view",
      "type": "function"
    },
    {
      "inputs": [
        {
          "internalType": "uint256",
          "name": "",
          "type": "uint256"
        }
      ],
      "name": "TweetIdToPost",
      "outputs": [
        {
          "internalType": "address",
          "name": "from",
          "type": "address"
        },
        {
          "internalType": "string",
          "name": "message",
          "type": "string"
        },
        {
          "internalType": "uint256",
          "name": "timestamp",
          "type": "uint256"
        }
      ],
      "stateMutability": "view",
      "type": "function"
    },
    {
      "inputs": [],
      "name": "getAllPosts",
      "outputs": [
        {
          "components": [
            {
              "internalType": "address",
              "name": "from",
              "type": "address"
            },
            {
              "internalType": "string",
              "name": "message",
              "type": "string"
            },
            {
              "internalType": "uint256",
              "name": "timestamp",
              "type": "uint256"
            }
          ],
          "internalType": "struct Web3SNS.Post[]",
          "name": "",
          "type": "tuple[]"
        }
      ],
      "stateMutability": "view",
      "type": "function"
    },
    {
      "inputs": [],
      "name": "like",
      "outputs": [],
      "stateMutability": "nonpayable",
      "type": "function"
    },
    {
      "inputs": [
        {
          "internalType": "string",
          "name": "message",
          "type": "string"
        }
      ],
      "name": "tweet",
      "outputs": [],
      "stateMutability": "nonpayable",
      "type": "function"
    }
  ],
  "bytecode": "0x608060405234801561001057600080fd5b50610d29806100206000396000f3fe608060405234801561001057600080fd5b50600436106100575760003560e01c8063305611001461005c5780637cb1db711461007a578063a523b88a146100aa578063f6eb36cd146100b4578063fb46d4c5146100e6575b600080fd5b610064610102565b6040516100719190610940565b60405180910390f35b610094600480360381019061008f91906109a2565b610253565b6040516100a191906109de565b60405180910390f35b6100b261026b565b005b6100ce60048036038101906100c991906109a2565b61026d565b6040516100dd93929190610a52565b60405180910390f35b61010060048036038101906100fb9190610bc5565b61033f565b005b60606001805480602002602001604051908101604052809291908181526020016000905b8282101561024a57838290600052602060002090600302016040518060600160405290816000820160009054906101000a900473ffffffffffffffffffffffffffffffffffffffff1673ffffffffffffffffffffffffffffffffffffffff1673ffffffffffffffffffffffffffffffffffffffff1681526020016001820180546101af90610c3d565b80601f01602080910402602001604051908101604052809291908181526020018280546101db90610c3d565b80156102285780601f106101fd57610100808354040283529160200191610228565b820191906000526020600020905b81548152906001019060200180831161020b57829003601f168201915b5050505050815260200160028201548152505081526020019060010190610126565b50505050905090565b60026020528060005260406000206000915090505481565b565b60036020528060005260406000206000915090508060000160009054906101000a900473ffffffffffffffffffffffffffffffffffffffff16908060010180546102b690610c3d565b80601f01602080910402602001604051908101604052809291908181526020018280546102e290610c3d565b801561032f5780601f106103045761010080835404028352916020019161032f565b820191906000526020600020905b81548152906001019060200180831161031257829003601f168201915b5050505050908060020154905083565b61037d6040518060400160405280600f81526020017f6d616b696e672074776565742e2e2e0000000000000000000000000000000000815250610513565b600061038960006105ac565b9050600060405180606001604052803373ffffffffffffffffffffffffffffffffffffffff168152602001848152602001428152509050600181908060018154018082558091505060019003906000526020600020906003020160009091909190915060008201518160000160006101000a81548173ffffffffffffffffffffffffffffffffffffffff021916908373ffffffffffffffffffffffffffffffffffffffff160217905550602082015181600101908051906020019061044f929190610698565b50604082015181600201555050806003600084815260200190815260200160002060008201518160000160006101000a81548173ffffffffffffffffffffffffffffffffffffffff021916908373ffffffffffffffffffffffffffffffffffffffff16021790555060208201518160010190805190602001906104d3929190610698565b5060408201518160020155905050610504604051806060016040528060248152602001610cd06024913933846105ba565b61050e6000610659565b505050565b6105a9816040516024016105279190610c6f565b6040516020818303038152906040527f41304fac000000000000000000000000000000000000000000000000000000007bffffffffffffffffffffffffffffffffffffffffffffffffffffffff19166020820180517bffffffffffffffffffffffffffffffffffffffffffffffffffffffff838183161783525050505061066f565b50565b600081600001549050919050565b6106548383836040516024016105d293929190610c91565b6040516020818303038152906040527f0d26b925000000000000000000000000000000000000000000000000000000007bffffffffffffffffffffffffffffffffffffffffffffffffffffffff19166020820180517bffffffffffffffffffffffffffffffffffffffffffffffffffffffff838183161783525050505061066f565b505050565b6001816000016000828254019250508190555050565b60008151905060006a636f6e736f6c652e6c6f679050602083016000808483855afa5050505050565b8280546106a490610c3d565b90600052602060002090601f0160209004810192826106c6576000855561070d565b82601f106106df57805160ff191683800117855561070d565b8280016001018555821561070d579182015b8281111561070c5782518255916020019190600101906106f1565b5b50905061071a919061071e565b5090565b5b8082111561073757600081600090555060010161071f565b5090565b600081519050919050565b600082825260208201905092915050565b6000819050602082019050919050565b600073ffffffffffffffffffffffffffffffffffffffff82169050919050565b600061079282610767565b9050919050565b6107a281610787565b82525050565b600081519050919050565b600082825260208201905092915050565b60005b838110156107e25780820151818401526020810190506107c7565b838111156107f1576000848401525b50505050565b6000601f19601f8301169050919050565b6000610813826107a8565b61081d81856107b3565b935061082d8185602086016107c4565b610836816107f7565b840191505092915050565b6000819050919050565b61085481610841565b82525050565b60006060830160008301516108726000860182610799565b506020830151848203602086015261088a8282610808565b915050604083015161089f604086018261084b565b508091505092915050565b60006108b6838361085a565b905092915050565b6000602082019050919050565b60006108d68261073b565b6108e08185610746565b9350836020820285016108f285610757565b8060005b8581101561092e578484038952815161090f85826108aa565b945061091a836108be565b925060208a019950506001810190506108f6565b50829750879550505050505092915050565b6000602082019050818103600083015261095a81846108cb565b905092915050565b6000604051905090565b600080fd5b600080fd5b61097f81610841565b811461098a57600080fd5b50565b60008135905061099c81610976565b92915050565b6000602082840312156109b8576109b761096c565b5b60006109c68482850161098d565b91505092915050565b6109d881610841565b82525050565b60006020820190506109f360008301846109cf565b92915050565b610a0281610787565b82525050565b600082825260208201905092915050565b6000610a24826107a8565b610a2e8185610a08565b9350610a3e8185602086016107c4565b610a47816107f7565b840191505092915050565b6000606082019050610a6760008301866109f9565b8181036020830152610a798185610a19565b9050610a8860408301846109cf565b949350505050565b600080fd5b600080fd5b7f4e487b7100000000000000000000000000000000000000000000000000000000600052604160045260246000fd5b610ad2826107f7565b810181811067ffffffffffffffff82111715610af157610af0610a9a565b5b80604052505050565b6000610b04610962565b9050610b108282610ac9565b919050565b600067ffffffffffffffff821115610b3057610b2f610a9a565b5b610b39826107f7565b9050602081019050919050565b82818337600083830152505050565b6000610b68610b6384610b15565b610afa565b905082815260208101848484011115610b8457610b83610a95565b5b610b8f848285610b46565b509392505050565b600082601f830112610bac57610bab610a90565b5b8135610bbc848260208601610b55565b91505092915050565b600060208284031215610bdb57610bda61096c565b5b600082013567ffffffffffffffff811115610bf957610bf8610971565b5b610c0584828501610b97565b91505092915050565b7f4e487b7100000000000000000000000000000000000000000000000000000000600052602260045260246000fd5b60006002820490506001821680610c5557607f821691505b60208210811415610c6957610c68610c0e565b5b50919050565b60006020820190508181036000830152610c898184610a19565b905092915050565b60006060820190508181036000830152610cab8186610a19565b9050610cba60208301856109f9565b610cc760408301846109cf565b94935050505056fe747765657420627920257320772f20494420257320686173206265656e20706f73746564a264697066735822122090fcce6ce1089ad5cb1aaca4e2bb5218fb61880ee33eee42d313517c12bea8a864736f6c63430008090033",
  "linkReferences": {},
  "deployedLinkReferences": {}
}