{
  "_format": "hh-sol-artifact-1",
  "contractName": "Web3SNS",
  "sourceName": "contracts/Web3SNS.sol",
  "abi": [
    {
      "anonymous": false,
      "inputs": [
        {
          "indexed": false,
          "internalType": "uint256",
          "name": "postId",
          "type": "uint256"
        },
        {
          "indexed": false,
          "internalType": "address",
          "name": "from",
          "type": "address"
        },
        {
          "indexed": false,
          "internalType": "string",
          "name": "message",
          "type": "string"
        },
        {
          "indexed": false,
          "internalType": "uint256",
          "name": "timestamp",
          "type": "uint256"
        },
        {
          "indexed": false,
          "internalType": "uint256",
          "name": "likes",
          "type": "uint256"
        }
      ],
      "name": "NewLike",
      "type": "event"
    },
    {
      "anonymous": false,
      "inputs": [
        {
          "indexed": false,
          "internalType": "uint256",
          "name": "postId",
          "type": "uint256"
        },
        {
          "indexed": false,
          "internalType": "address",
          "name": "from",
          "type": "address"
        },
        {
          "indexed": false,
          "internalType": "string",
          "name": "message",
          "type": "string"
        },
        {
          "indexed": false,
          "internalType": "uint256",
          "name": "timestamp",
          "type": "uint256"
        },
        {
          "indexed": false,
          "internalType": "uint256",
          "name": "likes",
          "type": "uint256"
        }
      ],
      "name": "NewPost",
      "type": "event"
    },
    {
      "inputs": [
        {
          "internalType": "uint256",
          "name": "",
          "type": "uint256"
        }
      ],
      "name": "TweetIdToPost",
      "outputs": [
        {
          "internalType": "uint256",
          "name": "postId",
          "type": "uint256"
        },
        {
          "internalType": "address",
          "name": "from",
          "type": "address"
        },
        {
          "internalType": "string",
          "name": "message",
          "type": "string"
        },
        {
          "internalType": "uint256",
          "name": "timestamp",
          "type": "uint256"
        },
        {
          "internalType": "uint256",
          "name": "likes",
          "type": "uint256"
        }
      ],
      "stateMutability": "view",
      "type": "function"
    },
    {
      "inputs": [],
      "name": "getAllPosts",
      "outputs": [
        {
          "components": [
            {
              "internalType": "uint256",
              "name": "postId",
              "type": "uint256"
            },
            {
              "internalType": "address",
              "name": "from",
              "type": "address"
            },
            {
              "internalType": "string",
              "name": "message",
              "type": "string"
            },
            {
              "internalType": "uint256",
              "name": "timestamp",
              "type": "uint256"
            },
            {
              "internalType": "uint256",
              "name": "likes",
              "type": "uint256"
            }
          ],
          "internalType": "struct Web3SNS.Post[]",
          "name": "",
          "type": "tuple[]"
        }
      ],
      "stateMutability": "view",
      "type": "function"
    },
    {
      "inputs": [
        {
          "internalType": "uint256",
          "name": "_index",
          "type": "uint256"
        }
      ],
      "name": "likesIncrement",
      "outputs": [],
      "stateMutability": "nonpayable",
      "type": "function"
    },
    {
      "inputs": [
        {
          "internalType": "string",
          "name": "_message",
          "type": "string"
        }
      ],
      "name": "tweet",
      "outputs": [],
      "stateMutability": "nonpayable",
      "type": "function"
    }
  ],
  "bytecode": "0x608060405234801561001057600080fd5b5061111d806100206000396000f3fe608060405234801561001057600080fd5b506004361061004c5760003560e01c806330561100146100515780638464a7c71461006f578063f6eb36cd1461008b578063fb46d4c5146100bf575b600080fd5b6100596100db565b6040516100669190610b6d565b60405180910390f35b61008960048036038101906100849190610bcf565b610240565b005b6100a560048036038101906100a09190610bcf565b6103ea565b6040516100b6959493929190610c64565b60405180910390f35b6100d960048036038101906100d49190610df3565b6104c8565b005b60606001805480602002602001604051908101604052809291908181526020016000905b8282101561023757838290600052602060002090600502016040518060a0016040529081600082015481526020016001820160009054906101000a900473ffffffffffffffffffffffffffffffffffffffff1673ffffffffffffffffffffffffffffffffffffffff1673ffffffffffffffffffffffffffffffffffffffff16815260200160028201805461019290610e6b565b80601f01602080910402602001604051908101604052809291908181526020018280546101be90610e6b565b801561020b5780601f106101e05761010080835404028352916020019161020b565b820191906000526020600020905b8154815290600101906020018083116101ee57829003601f168201915b5050505050815260200160038201548152602001600482015481525050815260200190600101906100ff565b50505050905090565b6001818154811061025457610253610e9d565b5b9060005260206000209060050201600401600081548092919061027690610efb565b91905055506102d06040518060400160405280601081526020017f4e6577204c696b657320436f756e743a00000000000000000000000000000000815250600260008481526020019081526020016000206004015461067e565b7f01a00d552132e138f9c633d7a184fa5f5be81fcd62eda4eb7b3ab03e327fc4dc6001828154811061030557610304610e9d565b5b9060005260206000209060050201600001546001838154811061032b5761032a610e9d565b5b906000526020600020906005020160010160009054906101000a900473ffffffffffffffffffffffffffffffffffffffff166001848154811061037157610370610e9d565b5b90600052602060002090600502016002016001858154811061039657610395610e9d565b5b906000526020600020906005020160030154600186815481106103bc576103bb610e9d565b5b9060005260206000209060050201600401546040516103df959493929190610fd9565b60405180910390a150565b60026020528060005260406000206000915090508060000154908060010160009054906101000a900473ffffffffffffffffffffffffffffffffffffffff169080600201805461043990610e6b565b80601f016020809104026020016040519081016040528092919081815260200182805461046590610e6b565b80156104b25780601f10610487576101008083540402835291602001916104b2565b820191906000526020600020905b81548152906001019060200180831161049557829003601f168201915b5050505050908060030154908060040154905085565b6105066040518060400160405280600f81526020017f6d616b696e672074776565742e2e2e000000000000000000000000000000000081525061071a565b600061051260006107b3565b905060004290506000806040518060a001604052808581526020013373ffffffffffffffffffffffffffffffffffffffff16815260200186815260200184815260200183815250905060018190806001815401808255809150506001900390600052602060002090600502016000909190919091506000820151816000015560208201518160010160006101000a81548173ffffffffffffffffffffffffffffffffffffffff021916908373ffffffffffffffffffffffffffffffffffffffff16021790555060408201518160020190805190602001906105f492919061089f565b506060820151816003015560808201518160040155505061062e6040518060600160405280602481526020016110c46024913933866107c1565b6106386000610860565b7fe535a02a01920b38061e7785d5f3d4688d895a51cc21bb9e09b59a11d3befcfb843387868660405161066f959493929190610c64565b60405180910390a15050505050565b6107168282604051602401610694929190611033565b6040516020818303038152906040527fb60e72cc000000000000000000000000000000000000000000000000000000007bffffffffffffffffffffffffffffffffffffffffffffffffffffffff19166020820180517bffffffffffffffffffffffffffffffffffffffffffffffffffffffff8381831617835250505050610876565b5050565b6107b08160405160240161072e9190611063565b6040516020818303038152906040527f41304fac000000000000000000000000000000000000000000000000000000007bffffffffffffffffffffffffffffffffffffffffffffffffffffffff19166020820180517bffffffffffffffffffffffffffffffffffffffffffffffffffffffff8381831617835250505050610876565b50565b600081600001549050919050565b61085b8383836040516024016107d993929190611085565b6040516020818303038152906040527f0d26b925000000000000000000000000000000000000000000000000000000007bffffffffffffffffffffffffffffffffffffffffffffffffffffffff19166020820180517bffffffffffffffffffffffffffffffffffffffffffffffffffffffff8381831617835250505050610876565b505050565b6001816000016000828254019250508190555050565b60008151905060006a636f6e736f6c652e6c6f679050602083016000808483855afa5050505050565b8280546108ab90610e6b565b90600052602060002090601f0160209004810192826108cd5760008555610914565b82601f106108e657805160ff1916838001178555610914565b82800160010185558215610914579182015b828111156109135782518255916020019190600101906108f8565b5b5090506109219190610925565b5090565b5b8082111561093e576000816000905550600101610926565b5090565b600081519050919050565b600082825260208201905092915050565b6000819050602082019050919050565b6000819050919050565b6109818161096e565b82525050565b600073ffffffffffffffffffffffffffffffffffffffff82169050919050565b60006109b282610987565b9050919050565b6109c2816109a7565b82525050565b600081519050919050565b600082825260208201905092915050565b60005b83811015610a025780820151818401526020810190506109e7565b83811115610a11576000848401525b50505050565b6000601f19601f8301169050919050565b6000610a33826109c8565b610a3d81856109d3565b9350610a4d8185602086016109e4565b610a5681610a17565b840191505092915050565b600060a083016000830151610a796000860182610978565b506020830151610a8c60208601826109b9565b5060408301518482036040860152610aa48282610a28565b9150506060830151610ab96060860182610978565b506080830151610acc6080860182610978565b508091505092915050565b6000610ae38383610a61565b905092915050565b6000602082019050919050565b6000610b0382610942565b610b0d818561094d565b935083602082028501610b1f8561095e565b8060005b85811015610b5b5784840389528151610b3c8582610ad7565b9450610b4783610aeb565b925060208a01995050600181019050610b23565b50829750879550505050505092915050565b60006020820190508181036000830152610b878184610af8565b905092915050565b6000604051905090565b600080fd5b600080fd5b610bac8161096e565b8114610bb757600080fd5b50565b600081359050610bc981610ba3565b92915050565b600060208284031215610be557610be4610b99565b5b6000610bf384828501610bba565b91505092915050565b610c058161096e565b82525050565b610c14816109a7565b82525050565b600082825260208201905092915050565b6000610c36826109c8565b610c408185610c1a565b9350610c508185602086016109e4565b610c5981610a17565b840191505092915050565b600060a082019050610c796000830188610bfc565b610c866020830187610c0b565b8181036040830152610c988186610c2b565b9050610ca76060830185610bfc565b610cb46080830184610bfc565b9695505050505050565b600080fd5b600080fd5b7f4e487b7100000000000000000000000000000000000000000000000000000000600052604160045260246000fd5b610d0082610a17565b810181811067ffffffffffffffff82111715610d1f57610d1e610cc8565b5b80604052505050565b6000610d32610b8f565b9050610d3e8282610cf7565b919050565b600067ffffffffffffffff821115610d5e57610d5d610cc8565b5b610d6782610a17565b9050602081019050919050565b82818337600083830152505050565b6000610d96610d9184610d43565b610d28565b905082815260208101848484011115610db257610db1610cc3565b5b610dbd848285610d74565b509392505050565b600082601f830112610dda57610dd9610cbe565b5b8135610dea848260208601610d83565b91505092915050565b600060208284031215610e0957610e08610b99565b5b600082013567ffffffffffffffff811115610e2757610e26610b9e565b5b610e3384828501610dc5565b91505092915050565b7f4e487b7100000000000000000000000000000000000000000000000000000000600052602260045260246000fd5b60006002820490506001821680610e8357607f821691505b60208210811415610e9757610e96610e3c565b5b50919050565b7f4e487b7100000000000000000000000000000000000000000000000000000000600052603260045260246000fd5b7f4e487b7100000000000000000000000000000000000000000000000000000000600052601160045260246000fd5b6000610f068261096e565b91507fffffffffffffffffffffffffffffffffffffffffffffffffffffffffffffffff821415610f3957610f38610ecc565b5b600182019050919050565b60008190508160005260206000209050919050565b60008154610f6681610e6b565b610f708186610c1a565b94506001821660008114610f8b5760018114610f9d57610fd0565b60ff1983168652602086019350610fd0565b610fa685610f44565b60005b83811015610fc857815481890152600182019150602081019050610fa9565b808801955050505b50505092915050565b600060a082019050610fee6000830188610bfc565b610ffb6020830187610c0b565b818103604083015261100d8186610f59565b905061101c6060830185610bfc565b6110296080830184610bfc565b9695505050505050565b6000604082019050818103600083015261104d8185610c2b565b905061105c6020830184610bfc565b9392505050565b6000602082019050818103600083015261107d8184610c2b565b905092915050565b6000606082019050818103600083015261109f8186610c2b565b90506110ae6020830185610c0b565b6110bb6040830184610bfc565b94935050505056fe747765657420627920257320772f20494420257320686173206265656e20706f73746564a26469706673582212203513559735c4364d9f7138b126d045790b8fc56ee397bd7200cbda530ffa5ed964736f6c63430008090033",
  "linkReferences": {},
  "deployedLinkReferences": {}
}