{
  "_format": "hh-sol-artifact-1",
  "contractName": "Web3SNS",
  "sourceName": "contracts/Web3SNS.sol",
  "abi": [
    {
      "inputs": [],
      "stateMutability": "payable",
      "type": "constructor"
    },
    {
      "anonymous": false,
      "inputs": [
        {
          "indexed": false,
          "internalType": "uint256",
          "name": "postId",
          "type": "uint256"
        },
        {
          "indexed": false,
          "internalType": "address",
          "name": "from",
          "type": "address"
        },
        {
          "indexed": false,
          "internalType": "string",
          "name": "message",
          "type": "string"
        },
        {
          "indexed": false,
          "internalType": "uint256",
          "name": "timestamp",
          "type": "uint256"
        },
        {
          "indexed": false,
          "internalType": "uint256",
          "name": "likes",
          "type": "uint256"
        }
      ],
      "name": "NewLike",
      "type": "event"
    },
    {
      "anonymous": false,
      "inputs": [
        {
          "indexed": false,
          "internalType": "uint256",
          "name": "postId",
          "type": "uint256"
        },
        {
          "indexed": false,
          "internalType": "address",
          "name": "from",
          "type": "address"
        },
        {
          "indexed": false,
          "internalType": "string",
          "name": "message",
          "type": "string"
        },
        {
          "indexed": false,
          "internalType": "uint256",
          "name": "timestamp",
          "type": "uint256"
        },
        {
          "indexed": false,
          "internalType": "uint256",
          "name": "likes",
          "type": "uint256"
        }
      ],
      "name": "NewPost",
      "type": "event"
    },
    {
      "inputs": [
        {
          "internalType": "uint256",
          "name": "",
          "type": "uint256"
        }
      ],
      "name": "TweetIdToPost",
      "outputs": [
        {
          "internalType": "uint256",
          "name": "postId",
          "type": "uint256"
        },
        {
          "internalType": "address",
          "name": "from",
          "type": "address"
        },
        {
          "internalType": "string",
          "name": "message",
          "type": "string"
        },
        {
          "internalType": "uint256",
          "name": "timestamp",
          "type": "uint256"
        },
        {
          "internalType": "uint256",
          "name": "likes",
          "type": "uint256"
        }
      ],
      "stateMutability": "view",
      "type": "function"
    },
    {
      "inputs": [],
      "name": "getAllPosts",
      "outputs": [
        {
          "components": [
            {
              "internalType": "uint256",
              "name": "postId",
              "type": "uint256"
            },
            {
              "internalType": "address",
              "name": "from",
              "type": "address"
            },
            {
              "internalType": "string",
              "name": "message",
              "type": "string"
            },
            {
              "internalType": "uint256",
              "name": "timestamp",
              "type": "uint256"
            },
            {
              "internalType": "uint256",
              "name": "likes",
              "type": "uint256"
            }
          ],
          "internalType": "struct Web3SNS.Post[]",
          "name": "",
          "type": "tuple[]"
        }
      ],
      "stateMutability": "view",
      "type": "function"
    },
    {
      "inputs": [
        {
          "internalType": "uint256",
          "name": "_index",
          "type": "uint256"
        }
      ],
      "name": "likesDiscrement",
      "outputs": [],
      "stateMutability": "nonpayable",
      "type": "function"
    },
    {
      "inputs": [
        {
          "internalType": "uint256",
          "name": "_index",
          "type": "uint256"
        }
      ],
      "name": "likesIncrement",
      "outputs": [],
      "stateMutability": "nonpayable",
      "type": "function"
    },
    {
      "inputs": [
        {
          "internalType": "address",
          "name": "to",
          "type": "address"
        }
      ],
      "name": "sendEther",
      "outputs": [],
      "stateMutability": "payable",
      "type": "function"
    },
    {
      "inputs": [
        {
          "internalType": "string",
          "name": "_message",
          "type": "string"
        }
      ],
      "name": "tweet",
      "outputs": [],
      "stateMutability": "nonpayable",
      "type": "function"
    }
  ],
  "bytecode": "0x60806040526200004f6040518060400160405280601181526020017f636f6e73747275637420737563636573730000000000000000000000000000008152506200005560201b6200099a1760201c565b620001e9565b620000f5816040516024016200006c9190620001c5565b6040516020818303038152906040527f41304fac000000000000000000000000000000000000000000000000000000007bffffffffffffffffffffffffffffffffffffffffffffffffffffffff19166020820180517bffffffffffffffffffffffffffffffffffffffffffffffffffffffff8381831617835250505050620000f860201b60201c565b50565b60008151905060006a636f6e736f6c652e6c6f679050602083016000808483855afa5050505050565b600081519050919050565b600082825260208201905092915050565b60005b838110156200015d57808201518184015260208101905062000140565b838111156200016d576000848401525b50505050565b6000601f19601f8301169050919050565b6000620001918262000121565b6200019d81856200012c565b9350620001af8185602086016200013d565b620001ba8162000173565b840191505092915050565b60006020820190508181036000830152620001e1818462000184565b905092915050565b6115da80620001f96000396000f3fe6080604052600436106100555760003560e01c8063305611001461005a57806348c981e2146100855780634b5cb3ab146100a15780638464a7c7146100ca578063f6eb36cd146100f3578063fb46d4c514610134575b600080fd5b34801561006657600080fd5b5061006f61015d565b60405161007c9190610e89565b60405180910390f35b61009f600480360381019061009a9190610eeb565b6102c2565b005b3480156100ad57600080fd5b506100c860048036038101906100c39190610f44565b6103c1565b005b3480156100d657600080fd5b506100f160048036038101906100ec9190610f44565b61055c565b005b3480156100ff57600080fd5b5061011a60048036038101906101159190610f44565b610706565b60405161012b959493929190610fd9565b60405180910390f35b34801561014057600080fd5b5061015b60048036038101906101569190611168565b6107e4565b005b60606001805480602002602001604051908101604052809291908181526020016000905b828210156102b957838290600052602060002090600502016040518060a0016040529081600082015481526020016001820160009054906101000a900473ffffffffffffffffffffffffffffffffffffffff1673ffffffffffffffffffffffffffffffffffffffff1673ffffffffffffffffffffffffffffffffffffffff168152602001600282018054610214906111e0565b80601f0160208091040260200160405190810160405280929190818152602001828054610240906111e0565b801561028d5780601f106102625761010080835404028352916020019161028d565b820191906000526020600020905b81548152906001019060200180831161027057829003601f168201915b505050505081526020016003820154815260200160048201548152505081526020019060010190610181565b50505050905090565b6000655af3107a4000905047811115610310576040517f08c379a00000000000000000000000000000000000000000000000000000000081526004016103079061125e565b60405180910390fd5b60008273ffffffffffffffffffffffffffffffffffffffff1682604051610336906112af565b60006040518083038185875af1925050503d8060008114610373576040519150601f19603f3d011682016040523d82523d6000602084013e610378565b606091505b50509050806103bc576040517f08c379a00000000000000000000000000000000000000000000000000000000081526004016103b390611310565b60405180910390fd5b505050565b6002600082815260200190815260200160002060040160008154809291906103e89061135f565b91905055506104426040518060400160405280601081526020017f4e6577204c696b657320436f756e743a000000000000000000000000000000008152506002600084815260200190815260200160002060040154610a33565b7f01a00d552132e138f9c633d7a184fa5f5be81fcd62eda4eb7b3ab03e327fc4dc6001828154811061047757610476611389565b5b9060005260206000209060050201600001546001838154811061049d5761049c611389565b5b906000526020600020906005020160010160009054906101000a900473ffffffffffffffffffffffffffffffffffffffff16600184815481106104e3576104e2611389565b5b90600052602060002090600502016002016001858154811061050857610507611389565b5b9060005260206000209060050201600301546001868154811061052e5761052d611389565b5b90600052602060002090600502016004015460405161055195949392919061144d565b60405180910390a150565b600181815481106105705761056f611389565b5b90600052602060002090600502016004016000815480929190610592906114a7565b91905055506105ec6040518060400160405280601081526020017f4e6577204c696b657320436f756e743a000000000000000000000000000000008152506002600084815260200190815260200160002060040154610a33565b7f01a00d552132e138f9c633d7a184fa5f5be81fcd62eda4eb7b3ab03e327fc4dc6001828154811061062157610620611389565b5b9060005260206000209060050201600001546001838154811061064757610646611389565b5b906000526020600020906005020160010160009054906101000a900473ffffffffffffffffffffffffffffffffffffffff166001848154811061068d5761068c611389565b5b9060005260206000209060050201600201600185815481106106b2576106b1611389565b5b906000526020600020906005020160030154600186815481106106d8576106d7611389565b5b9060005260206000209060050201600401546040516106fb95949392919061144d565b60405180910390a150565b60026020528060005260406000206000915090508060000154908060010160009054906101000a900473ffffffffffffffffffffffffffffffffffffffff1690806002018054610755906111e0565b80601f0160208091040260200160405190810160405280929190818152602001828054610781906111e0565b80156107ce5780601f106107a3576101008083540402835291602001916107ce565b820191906000526020600020905b8154815290600101906020018083116107b157829003601f168201915b5050505050908060030154908060040154905085565b6108226040518060400160405280600f81526020017f6d616b696e672074776565742e2e2e000000000000000000000000000000000081525061099a565b600061082e6000610acf565b905060004290506000806040518060a001604052808581526020013373ffffffffffffffffffffffffffffffffffffffff16815260200186815260200184815260200183815250905060018190806001815401808255809150506001900390600052602060002090600502016000909190919091506000820151816000015560208201518160010160006101000a81548173ffffffffffffffffffffffffffffffffffffffff021916908373ffffffffffffffffffffffffffffffffffffffff1602179055506040820151816002019080519060200190610910929190610bbb565b506060820151816003015560808201518160040155505061094a604051806060016040528060248152602001611581602491393386610add565b6109546000610b7c565b7fe535a02a01920b38061e7785d5f3d4688d895a51cc21bb9e09b59a11d3befcfb843387868660405161098b959493929190610fd9565b60405180910390a15050505050565b610a30816040516024016109ae91906114f0565b6040516020818303038152906040527f41304fac000000000000000000000000000000000000000000000000000000007bffffffffffffffffffffffffffffffffffffffffffffffffffffffff19166020820180517bffffffffffffffffffffffffffffffffffffffffffffffffffffffff8381831617835250505050610b92565b50565b610acb8282604051602401610a49929190611512565b6040516020818303038152906040527fb60e72cc000000000000000000000000000000000000000000000000000000007bffffffffffffffffffffffffffffffffffffffffffffffffffffffff19166020820180517bffffffffffffffffffffffffffffffffffffffffffffffffffffffff8381831617835250505050610b92565b5050565b600081600001549050919050565b610b77838383604051602401610af593929190611542565b6040516020818303038152906040527f0d26b925000000000000000000000000000000000000000000000000000000007bffffffffffffffffffffffffffffffffffffffffffffffffffffffff19166020820180517bffffffffffffffffffffffffffffffffffffffffffffffffffffffff8381831617835250505050610b92565b505050565b6001816000016000828254019250508190555050565b60008151905060006a636f6e736f6c652e6c6f679050602083016000808483855afa5050505050565b828054610bc7906111e0565b90600052602060002090601f016020900481019282610be95760008555610c30565b82601f10610c0257805160ff1916838001178555610c30565b82800160010185558215610c30579182015b82811115610c2f578251825591602001919060010190610c14565b5b509050610c3d9190610c41565b5090565b5b80821115610c5a576000816000905550600101610c42565b5090565b600081519050919050565b600082825260208201905092915050565b6000819050602082019050919050565b6000819050919050565b610c9d81610c8a565b82525050565b600073ffffffffffffffffffffffffffffffffffffffff82169050919050565b6000610cce82610ca3565b9050919050565b610cde81610cc3565b82525050565b600081519050919050565b600082825260208201905092915050565b60005b83811015610d1e578082015181840152602081019050610d03565b83811115610d2d576000848401525b50505050565b6000601f19601f8301169050919050565b6000610d4f82610ce4565b610d598185610cef565b9350610d69818560208601610d00565b610d7281610d33565b840191505092915050565b600060a083016000830151610d956000860182610c94565b506020830151610da86020860182610cd5565b5060408301518482036040860152610dc08282610d44565b9150506060830151610dd56060860182610c94565b506080830151610de86080860182610c94565b508091505092915050565b6000610dff8383610d7d565b905092915050565b6000602082019050919050565b6000610e1f82610c5e565b610e298185610c69565b935083602082028501610e3b85610c7a565b8060005b85811015610e775784840389528151610e588582610df3565b9450610e6383610e07565b925060208a01995050600181019050610e3f565b50829750879550505050505092915050565b60006020820190508181036000830152610ea38184610e14565b905092915050565b6000604051905090565b600080fd5b600080fd5b610ec881610cc3565b8114610ed357600080fd5b50565b600081359050610ee581610ebf565b92915050565b600060208284031215610f0157610f00610eb5565b5b6000610f0f84828501610ed6565b91505092915050565b610f2181610c8a565b8114610f2c57600080fd5b50565b600081359050610f3e81610f18565b92915050565b600060208284031215610f5a57610f59610eb5565b5b6000610f6884828501610f2f565b91505092915050565b610f7a81610c8a565b82525050565b610f8981610cc3565b82525050565b600082825260208201905092915050565b6000610fab82610ce4565b610fb58185610f8f565b9350610fc5818560208601610d00565b610fce81610d33565b840191505092915050565b600060a082019050610fee6000830188610f71565b610ffb6020830187610f80565b818103604083015261100d8186610fa0565b905061101c6060830185610f71565b6110296080830184610f71565b9695505050505050565b600080fd5b600080fd5b7f4e487b7100000000000000000000000000000000000000000000000000000000600052604160045260246000fd5b61107582610d33565b810181811067ffffffffffffffff821117156110945761109361103d565b5b80604052505050565b60006110a7610eab565b90506110b3828261106c565b919050565b600067ffffffffffffffff8211156110d3576110d261103d565b5b6110dc82610d33565b9050602081019050919050565b82818337600083830152505050565b600061110b611106846110b8565b61109d565b90508281526020810184848401111561112757611126611038565b5b6111328482856110e9565b509392505050565b600082601f83011261114f5761114e611033565b5b813561115f8482602086016110f8565b91505092915050565b60006020828403121561117e5761117d610eb5565b5b600082013567ffffffffffffffff81111561119c5761119b610eba565b5b6111a88482850161113a565b91505092915050565b7f4e487b7100000000000000000000000000000000000000000000000000000000600052602260045260246000fd5b600060028204905060018216806111f857607f821691505b6020821081141561120c5761120b6111b1565b5b50919050565b7f496e73756666696369656e742046756e64730000000000000000000000000000600082015250565b6000611248601283610f8f565b915061125382611212565b602082019050919050565b600060208201905081810360008301526112778161123b565b9050919050565b600081905092915050565b50565b600061129960008361127e565b91506112a482611289565b600082019050919050565b60006112ba8261128c565b9150819050919050565b7f4661696c656420746f2073656e64207469700000000000000000000000000000600082015250565b60006112fa601283610f8f565b9150611305826112c4565b602082019050919050565b60006020820190508181036000830152611329816112ed565b9050919050565b7f4e487b7100000000000000000000000000000000000000000000000000000000600052601160045260246000fd5b600061136a82610c8a565b9150600082141561137e5761137d611330565b5b600182039050919050565b7f4e487b7100000000000000000000000000000000000000000000000000000000600052603260045260246000fd5b60008190508160005260206000209050919050565b600081546113da816111e0565b6113e48186610f8f565b945060018216600081146113ff576001811461141157611444565b60ff1983168652602086019350611444565b61141a856113b8565b60005b8381101561143c5781548189015260018201915060208101905061141d565b808801955050505b50505092915050565b600060a0820190506114626000830188610f71565b61146f6020830187610f80565b818103604083015261148181866113cd565b90506114906060830185610f71565b61149d6080830184610f71565b9695505050505050565b60006114b282610c8a565b91507fffffffffffffffffffffffffffffffffffffffffffffffffffffffffffffffff8214156114e5576114e4611330565b5b600182019050919050565b6000602082019050818103600083015261150a8184610fa0565b905092915050565b6000604082019050818103600083015261152c8185610fa0565b905061153b6020830184610f71565b9392505050565b6000606082019050818103600083015261155c8186610fa0565b905061156b6020830185610f80565b6115786040830184610f71565b94935050505056fe747765657420627920257320772f20494420257320686173206265656e20706f73746564a2646970667358221220cd2c46341b978fd9d854dfe5cdf18ecd6c61ed111ea0f892b39d17b1c5dec68d64736f6c63430008090033",
  "linkReferences": {},
  "deployedLinkReferences": {}
}