{
  "_format": "hh-sol-artifact-1",
  "contractName": "Web3SNS",
  "sourceName": "contracts/Web3SNS.sol",
  "abi": [
    {
      "inputs": [],
      "stateMutability": "payable",
      "type": "constructor"
    },
    {
      "anonymous": false,
      "inputs": [
        {
          "indexed": false,
          "internalType": "uint256",
          "name": "postId",
          "type": "uint256"
        },
        {
          "indexed": false,
          "internalType": "address",
          "name": "from",
          "type": "address"
        },
        {
          "indexed": false,
          "internalType": "string",
          "name": "message",
          "type": "string"
        },
        {
          "indexed": false,
          "internalType": "uint256",
          "name": "timestamp",
          "type": "uint256"
        },
        {
          "indexed": false,
          "internalType": "uint256",
          "name": "likes",
          "type": "uint256"
        },
        {
          "indexed": false,
          "internalType": "bool",
          "name": "likeFlag",
          "type": "bool"
        }
      ],
      "name": "NewLike",
      "type": "event"
    },
    {
      "anonymous": false,
      "inputs": [
        {
          "indexed": false,
          "internalType": "uint256",
          "name": "postId",
          "type": "uint256"
        },
        {
          "indexed": false,
          "internalType": "address",
          "name": "from",
          "type": "address"
        },
        {
          "indexed": false,
          "internalType": "string",
          "name": "message",
          "type": "string"
        },
        {
          "indexed": false,
          "internalType": "uint256",
          "name": "timestamp",
          "type": "uint256"
        },
        {
          "indexed": false,
          "internalType": "uint256",
          "name": "likes",
          "type": "uint256"
        },
        {
          "indexed": false,
          "internalType": "bool",
          "name": "likeFlag",
          "type": "bool"
        }
      ],
      "name": "NewPost",
      "type": "event"
    },
    {
      "inputs": [],
      "name": "getAllPosts",
      "outputs": [
        {
          "components": [
            {
              "internalType": "uint256",
              "name": "postId",
              "type": "uint256"
            },
            {
              "internalType": "address",
              "name": "from",
              "type": "address"
            },
            {
              "internalType": "string",
              "name": "message",
              "type": "string"
            },
            {
              "internalType": "uint256",
              "name": "timestamp",
              "type": "uint256"
            },
            {
              "internalType": "uint256",
              "name": "likes",
              "type": "uint256"
            },
            {
              "internalType": "bool",
              "name": "likeFlag",
              "type": "bool"
            }
          ],
          "internalType": "struct Web3SNS.Post[]",
          "name": "",
          "type": "tuple[]"
        }
      ],
      "stateMutability": "view",
      "type": "function"
    },
    {
      "inputs": [
        {
          "internalType": "uint256",
          "name": "_index",
          "type": "uint256"
        }
      ],
      "name": "likesDiscrement",
      "outputs": [],
      "stateMutability": "nonpayable",
      "type": "function"
    },
    {
      "inputs": [
        {
          "internalType": "uint256",
          "name": "_index",
          "type": "uint256"
        }
      ],
      "name": "likesIncrement",
      "outputs": [],
      "stateMutability": "nonpayable",
      "type": "function"
    },
    {
      "inputs": [
        {
          "internalType": "address",
          "name": "to",
          "type": "address"
        }
      ],
      "name": "sendEther",
      "outputs": [],
      "stateMutability": "payable",
      "type": "function"
    },
    {
      "inputs": [
        {
          "internalType": "string",
          "name": "_message",
          "type": "string"
        }
      ],
      "name": "tweet",
      "outputs": [],
      "stateMutability": "nonpayable",
      "type": "function"
    },
    {
      "inputs": [
        {
          "internalType": "address",
          "name": "",
          "type": "address"
        },
        {
          "internalType": "uint256",
          "name": "",
          "type": "uint256"
        }
      ],
      "name": "userToLikedList",
      "outputs": [
        {
          "internalType": "uint256",
          "name": "",
          "type": "uint256"
        }
      ],
      "stateMutability": "view",
      "type": "function"
    }
  ],
  "bytecode": "0x60806040526200004f6040518060400160405280601181526020017f636f6e73747275637420737563636573730000000000000000000000000000008152506200005560201b62000fe61760201c565b620001e9565b620000f5816040516024016200006c9190620001c5565b6040516020818303038152906040527f41304fac000000000000000000000000000000000000000000000000000000007bffffffffffffffffffffffffffffffffffffffffffffffffffffffff19166020820180517bffffffffffffffffffffffffffffffffffffffffffffffffffffffff8381831617835250505050620000f860201b60201c565b50565b60008151905060006a636f6e736f6c652e6c6f679050602083016000808483855afa5050505050565b600081519050919050565b600082825260208201905092915050565b60005b838110156200015d57808201518184015260208101905062000140565b838111156200016d576000848401525b50505050565b6000601f19601f8301169050919050565b6000620001918262000121565b6200019d81856200012c565b9350620001af8185602086016200013d565b620001ba8162000173565b840191505092915050565b60006020820190508181036000830152620001e1818462000184565b905092915050565b611adf80620001f96000396000f3fe6080604052600436106100555760003560e01c8063305611001461005a57806348c981e2146100855780634b5cb3ab146100a1578063776a6596146100ca5780638464a7c714610107578063fb46d4c514610130575b600080fd5b34801561006657600080fd5b5061006f610159565b60405161007c91906113c8565b60405180910390f35b61009f600480360381019061009a919061142a565b61040d565b005b3480156100ad57600080fd5b506100c860048036038101906100c39190611483565b61050c565b005b3480156100d657600080fd5b506100f160048036038101906100ec91906114b0565b6109ec565b6040516100fe91906114ff565b60405180910390f35b34801561011357600080fd5b5061012e60048036038101906101299190611483565b610a1d565b005b34801561013c57600080fd5b506101576004803603810190610152919061164f565b610e64565b005b606060006001805480602002602001604051908101604052809291908181526020016000905b828210156102d257838290600052602060002090600602016040518060c0016040529081600082015481526020016001820160009054906101000a900473ffffffffffffffffffffffffffffffffffffffff1673ffffffffffffffffffffffffffffffffffffffff1673ffffffffffffffffffffffffffffffffffffffff168152602001600282018054610212906116c7565b80601f016020809104026020016040519081016040528092919081815260200182805461023e906116c7565b801561028b5780601f106102605761010080835404028352916020019161028b565b820191906000526020600020905b81548152906001019060200180831161026e57829003601f168201915b5050505050815260200160038201548152602001600482015481526020016005820160009054906101000a900460ff1615151515815250508152602001906001019061017f565b50505050905060005b81518110156104055760005b600260003373ffffffffffffffffffffffffffffffffffffffff1673ffffffffffffffffffffffffffffffffffffffff168152602001908152602001600020805490508110156103f157600260003373ffffffffffffffffffffffffffffffffffffffff1673ffffffffffffffffffffffffffffffffffffffff1681526020019081526020016000208181548110610382576103816116f9565b5b90600052602060002001548383815181106103a05761039f6116f9565b5b60200260200101516000015114156103de5760018383815181106103c7576103c66116f9565b5b602002602001015160a00190151590811515815250505b80806103e990611757565b9150506102e7565b5080806103fd90611757565b9150506102db565b508091505090565b6000655af3107a400090504781111561045b576040517f08c379a0000000000000000000000000000000000000000000000000000000008152600401610452906117fd565b60405180910390fd5b60008273ffffffffffffffffffffffffffffffffffffffff16826040516104819061184e565b60006040518083038185875af1925050503d80600081146104be576040519150601f19603f3d011682016040523d82523d6000602084013e6104c3565b606091505b5050905080610507576040517f08c379a00000000000000000000000000000000000000000000000000000000081526004016104fe906118af565b60405180910390fd5b505050565b600181815481106105205761051f6116f9565b5b90600052602060002090600602016004016000815480929190610542906118cf565b91905055506000600260003373ffffffffffffffffffffffffffffffffffffffff1673ffffffffffffffffffffffffffffffffffffffff168152602001908152602001600020805490509050600080600090505b8281101561061c5783600260003373ffffffffffffffffffffffffffffffffffffffff1673ffffffffffffffffffffffffffffffffffffffff16815260200190815260200160002082815481106105f0576105ef6116f9565b5b906000526020600020015414156106095780915061061c565b808061061490611757565b915050610596565b50600260003373ffffffffffffffffffffffffffffffffffffffff1673ffffffffffffffffffffffffffffffffffffffff16815260200190815260200160002060018361066991906118f9565b8154811061067a576106796116f9565b5b9060005260206000200154600260003373ffffffffffffffffffffffffffffffffffffffff1673ffffffffffffffffffffffffffffffffffffffff16815260200190815260200160002082815481106106d6576106d56116f9565b5b9060005260206000200181905550600260003373ffffffffffffffffffffffffffffffffffffffff1673ffffffffffffffffffffffffffffffffffffffff1681526020019081526020016000208054806107335761073261192d565b5b6001900381819060005260206000200160009055905560006001805480602002602001604051908101604052809291908181526020016000905b828210156108c057838290600052602060002090600602016040518060c0016040529081600082015481526020016001820160009054906101000a900473ffffffffffffffffffffffffffffffffffffffff1673ffffffffffffffffffffffffffffffffffffffff1673ffffffffffffffffffffffffffffffffffffffff168152602001600282018054610800906116c7565b80601f016020809104026020016040519081016040528092919081815260200182805461082c906116c7565b80156108795780601f1061084e57610100808354040283529160200191610879565b820191906000526020600020905b81548152906001019060200180831161085c57829003601f168201915b5050505050815260200160038201548152602001600482015481526020016005820160009054906101000a900460ff1615151515815250508152602001906001019061076d565b50505050905060008185815181106108db576108da6116f9565b5b602002602001015160a00190151590811515815250507f0ec8f735e631427d19da53ff533489d09c9437913f6b6d37ac2882fdecefd4ee818581518110610925576109246116f9565b5b602002602001015160000151828681518110610944576109436116f9565b5b602002602001015160200151838781518110610963576109626116f9565b5b602002602001015160400151848881518110610982576109816116f9565b5b6020026020010151606001518589815181106109a1576109a06116f9565b5b602002602001015160800151868a815181106109c0576109bf6116f9565b5b602002602001015160a001516040516109de969594939291906119b3565b60405180910390a150505050565b60026020528160005260406000208181548110610a0857600080fd5b90600052602060002001600091509150505481565b60005b600260003373ffffffffffffffffffffffffffffffffffffffff1673ffffffffffffffffffffffffffffffffffffffff16815260200190815260200160002080549050811015610b21576000600260003373ffffffffffffffffffffffffffffffffffffffff1673ffffffffffffffffffffffffffffffffffffffff1681526020019081526020016000208281548110610abd57610abc6116f9565b5b9060005260206000200154905082811415610b0d576040517f08c379a0000000000000000000000000000000000000000000000000000000008152600401610b0490611a67565b60405180910390fd5b508080610b1990611757565b915050610a20565b5060018181548110610b3657610b356116f9565b5b90600052602060002090600602016004016000815480929190610b5890611757565b9190505550600260003373ffffffffffffffffffffffffffffffffffffffff1673ffffffffffffffffffffffffffffffffffffffff16815260200190815260200160002081908060018154018082558091505060019003906000526020600020016000909190919091505560006001805480602002602001604051908101604052809291908181526020016000905b82821015610d3a57838290600052602060002090600602016040518060c0016040529081600082015481526020016001820160009054906101000a900473ffffffffffffffffffffffffffffffffffffffff1673ffffffffffffffffffffffffffffffffffffffff1673ffffffffffffffffffffffffffffffffffffffff168152602001600282018054610c7a906116c7565b80601f0160208091040260200160405190810160405280929190818152602001828054610ca6906116c7565b8015610cf35780601f10610cc857610100808354040283529160200191610cf3565b820191906000526020600020905b815481529060010190602001808311610cd657829003601f168201915b5050505050815260200160038201548152602001600482015481526020016005820160009054906101000a900460ff16151515158152505081526020019060010190610be7565b5050505090506001818381518110610d5557610d546116f9565b5b602002602001015160a00190151590811515815250507f0ec8f735e631427d19da53ff533489d09c9437913f6b6d37ac2882fdecefd4ee818381518110610d9f57610d9e6116f9565b5b602002602001015160000151828481518110610dbe57610dbd6116f9565b5b602002602001015160200151838581518110610ddd57610ddc6116f9565b5b602002602001015160400151848681518110610dfc57610dfb6116f9565b5b602002602001015160600151858781518110610e1b57610e1a6116f9565b5b602002602001015160800151868881518110610e3a57610e396116f9565b5b602002602001015160a00151604051610e58969594939291906119b3565b60405180910390a15050565b6000610e70600061107f565b9050600042905060008060006040518060c001604052808681526020013373ffffffffffffffffffffffffffffffffffffffff168152602001878152602001858152602001848152602001831515815250905060018190806001815401808255809150506001900390600052602060002090600602016000909190919091506000820151816000015560208201518160010160006101000a81548173ffffffffffffffffffffffffffffffffffffffff021916908373ffffffffffffffffffffffffffffffffffffffff1602179055506040820151816002019080519060200190610f5c9291906110cc565b50606082015181600301556080820151816004015560a08201518160050160006101000a81548160ff0219169083151502179055505050610f9d600061108d565b7fff464ca6ea0ebd29eb42fa1f5df521f2909ad04867e2fff17674d6e038fd7597853388878787604051610fd6969594939291906119b3565b60405180910390a1505050505050565b61107c81604051602401610ffa9190611a87565b6040516020818303038152906040527f41304fac000000000000000000000000000000000000000000000000000000007bffffffffffffffffffffffffffffffffffffffffffffffffffffffff19166020820180517bffffffffffffffffffffffffffffffffffffffffffffffffffffffff83818316178352505050506110a3565b50565b600081600001549050919050565b6001816000016000828254019250508190555050565b60008151905060006a636f6e736f6c652e6c6f679050602083016000808483855afa5050505050565b8280546110d8906116c7565b90600052602060002090601f0160209004810192826110fa5760008555611141565b82601f1061111357805160ff1916838001178555611141565b82800160010185558215611141579182015b82811115611140578251825591602001919060010190611125565b5b50905061114e9190611152565b5090565b5b8082111561116b576000816000905550600101611153565b5090565b600081519050919050565b600082825260208201905092915050565b6000819050602082019050919050565b6000819050919050565b6111ae8161119b565b82525050565b600073ffffffffffffffffffffffffffffffffffffffff82169050919050565b60006111df826111b4565b9050919050565b6111ef816111d4565b82525050565b600081519050919050565b600082825260208201905092915050565b60005b8381101561122f578082015181840152602081019050611214565b8381111561123e576000848401525b50505050565b6000601f19601f8301169050919050565b6000611260826111f5565b61126a8185611200565b935061127a818560208601611211565b61128381611244565b840191505092915050565b60008115159050919050565b6112a38161128e565b82525050565b600060c0830160008301516112c160008601826111a5565b5060208301516112d460208601826111e6565b50604083015184820360408601526112ec8282611255565b915050606083015161130160608601826111a5565b50608083015161131460808601826111a5565b5060a083015161132760a086018261129a565b508091505092915050565b600061133e83836112a9565b905092915050565b6000602082019050919050565b600061135e8261116f565b611368818561117a565b93508360208202850161137a8561118b565b8060005b858110156113b657848403895281516113978582611332565b94506113a283611346565b925060208a0199505060018101905061137e565b50829750879550505050505092915050565b600060208201905081810360008301526113e28184611353565b905092915050565b6000604051905090565b600080fd5b600080fd5b611407816111d4565b811461141257600080fd5b50565b600081359050611424816113fe565b92915050565b6000602082840312156114405761143f6113f4565b5b600061144e84828501611415565b91505092915050565b6114608161119b565b811461146b57600080fd5b50565b60008135905061147d81611457565b92915050565b600060208284031215611499576114986113f4565b5b60006114a78482850161146e565b91505092915050565b600080604083850312156114c7576114c66113f4565b5b60006114d585828601611415565b92505060206114e68582860161146e565b9150509250929050565b6114f98161119b565b82525050565b600060208201905061151460008301846114f0565b92915050565b600080fd5b600080fd5b7f4e487b7100000000000000000000000000000000000000000000000000000000600052604160045260246000fd5b61155c82611244565b810181811067ffffffffffffffff8211171561157b5761157a611524565b5b80604052505050565b600061158e6113ea565b905061159a8282611553565b919050565b600067ffffffffffffffff8211156115ba576115b9611524565b5b6115c382611244565b9050602081019050919050565b82818337600083830152505050565b60006115f26115ed8461159f565b611584565b90508281526020810184848401111561160e5761160d61151f565b5b6116198482856115d0565b509392505050565b600082601f8301126116365761163561151a565b5b81356116468482602086016115df565b91505092915050565b600060208284031215611665576116646113f4565b5b600082013567ffffffffffffffff811115611683576116826113f9565b5b61168f84828501611621565b91505092915050565b7f4e487b7100000000000000000000000000000000000000000000000000000000600052602260045260246000fd5b600060028204905060018216806116df57607f821691505b602082108114156116f3576116f2611698565b5b50919050565b7f4e487b7100000000000000000000000000000000000000000000000000000000600052603260045260246000fd5b7f4e487b7100000000000000000000000000000000000000000000000000000000600052601160045260246000fd5b60006117628261119b565b91507fffffffffffffffffffffffffffffffffffffffffffffffffffffffffffffffff82141561179557611794611728565b5b600182019050919050565b600082825260208201905092915050565b7f496e73756666696369656e742046756e64730000000000000000000000000000600082015250565b60006117e76012836117a0565b91506117f2826117b1565b602082019050919050565b60006020820190508181036000830152611816816117da565b9050919050565b600081905092915050565b50565b600061183860008361181d565b915061184382611828565b600082019050919050565b60006118598261182b565b9150819050919050565b7f4661696c656420746f2073656e64207469700000000000000000000000000000600082015250565b60006118996012836117a0565b91506118a482611863565b602082019050919050565b600060208201905081810360008301526118c88161188c565b9050919050565b60006118da8261119b565b915060008214156118ee576118ed611728565b5b600182039050919050565b60006119048261119b565b915061190f8361119b565b92508282101561192257611921611728565b5b828203905092915050565b7f4e487b7100000000000000000000000000000000000000000000000000000000600052603160045260246000fd5b611965816111d4565b82525050565b6000611976826111f5565b61198081856117a0565b9350611990818560208601611211565b61199981611244565b840191505092915050565b6119ad8161128e565b82525050565b600060c0820190506119c860008301896114f0565b6119d5602083018861195c565b81810360408301526119e7818761196b565b90506119f660608301866114f0565b611a0360808301856114f0565b611a1060a08301846119a4565b979650505050505050565b7f596f7520616c7265616479206c696b6564207468697320706f73740000000000600082015250565b6000611a51601b836117a0565b9150611a5c82611a1b565b602082019050919050565b60006020820190508181036000830152611a8081611a44565b9050919050565b60006020820190508181036000830152611aa1818461196b565b90509291505056fea26469706673582212201bc11c81c30c33b291d28421afb1febe59592c8c4eec0cc639cc24752f7b0ce664736f6c63430008090033",
  "linkReferences": {},
  "deployedLinkReferences": {}
}