{
  "_format": "hh-sol-artifact-1",
  "contractName": "Web3SNS",
  "sourceName": "contracts/Web3SNS.sol",
  "abi": [
    {
      "anonymous": false,
      "inputs": [
        {
          "indexed": false,
          "internalType": "address",
          "name": "from",
          "type": "address"
        },
        {
          "indexed": false,
          "internalType": "string",
          "name": "message",
          "type": "string"
        },
        {
          "indexed": false,
          "internalType": "uint256",
          "name": "timestamp",
          "type": "uint256"
        },
        {
          "indexed": false,
          "internalType": "uint256",
          "name": "likes",
          "type": "uint256"
        }
      ],
      "name": "NewPost",
      "type": "event"
    },
    {
      "inputs": [
        {
          "internalType": "uint256",
          "name": "",
          "type": "uint256"
        }
      ],
      "name": "LikesCount",
      "outputs": [
        {
          "internalType": "uint256",
          "name": "",
          "type": "uint256"
        }
      ],
      "stateMutability": "view",
      "type": "function"
    },
    {
      "inputs": [
        {
          "internalType": "uint256",
          "name": "",
          "type": "uint256"
        }
      ],
      "name": "TweetIdToPost",
      "outputs": [
        {
          "internalType": "address",
          "name": "from",
          "type": "address"
        },
        {
          "internalType": "string",
          "name": "message",
          "type": "string"
        },
        {
          "internalType": "uint256",
          "name": "timestamp",
          "type": "uint256"
        }
      ],
      "stateMutability": "view",
      "type": "function"
    },
    {
      "inputs": [],
      "name": "getAllPosts",
      "outputs": [
        {
          "components": [
            {
              "internalType": "address",
              "name": "from",
              "type": "address"
            },
            {
              "internalType": "string",
              "name": "message",
              "type": "string"
            },
            {
              "internalType": "uint256",
              "name": "timestamp",
              "type": "uint256"
            }
          ],
          "internalType": "struct Web3SNS.Post[]",
          "name": "",
          "type": "tuple[]"
        }
      ],
      "stateMutability": "view",
      "type": "function"
    },
    {
      "inputs": [],
      "name": "like",
      "outputs": [],
      "stateMutability": "nonpayable",
      "type": "function"
    },
    {
      "inputs": [
        {
          "internalType": "string",
          "name": "_message",
          "type": "string"
        }
      ],
      "name": "tweet",
      "outputs": [],
      "stateMutability": "nonpayable",
      "type": "function"
    }
  ],
  "bytecode": "0x608060405234801561001057600080fd5b50610dfe806100206000396000f3fe608060405234801561001057600080fd5b50600436106100575760003560e01c8063305611001461005c5780637cb1db711461007a578063a523b88a146100aa578063f6eb36cd146100b4578063fb46d4c5146100e6575b600080fd5b610064610102565b6040516100719190610984565b60405180910390f35b610094600480360381019061008f91906109e6565b610253565b6040516100a19190610a22565b60405180910390f35b6100b261026b565b005b6100ce60048036038101906100c991906109e6565b61026d565b6040516100dd93929190610a96565b60405180910390f35b61010060048036038101906100fb9190610c09565b61033f565b005b60606001805480602002602001604051908101604052809291908181526020016000905b8282101561024a57838290600052602060002090600302016040518060600160405290816000820160009054906101000a900473ffffffffffffffffffffffffffffffffffffffff1673ffffffffffffffffffffffffffffffffffffffff1673ffffffffffffffffffffffffffffffffffffffff1681526020016001820180546101af90610c81565b80601f01602080910402602001604051908101604052809291908181526020018280546101db90610c81565b80156102285780601f106101fd57610100808354040283529160200191610228565b820191906000526020600020905b81548152906001019060200180831161020b57829003601f168201915b5050505050815260200160028201548152505081526020019060010190610126565b50505050905090565b60026020528060005260406000206000915090505481565b565b60036020528060005260406000206000915090508060000160009054906101000a900473ffffffffffffffffffffffffffffffffffffffff16908060010180546102b690610c81565b80601f01602080910402602001604051908101604052809291908181526020018280546102e290610c81565b801561032f5780601f106103045761010080835404028352916020019161032f565b820191906000526020600020905b81548152906001019060200180831161031257829003601f168201915b5050505050908060020154905083565b61037d6040518060400160405280600f81526020017f6d616b696e672074776565742e2e2e0000000000000000000000000000000000815250610557565b600061038960006105f0565b90506000429050600060405180606001604052803373ffffffffffffffffffffffffffffffffffffffff168152602001858152602001838152509050600181908060018154018082558091505060019003906000526020600020906003020160009091909190915060008201518160000160006101000a81548173ffffffffffffffffffffffffffffffffffffffff021916908373ffffffffffffffffffffffffffffffffffffffff16021790555060208201518160010190805190602001906104549291906106dc565b50604082015181600201555050806003600085815260200190815260200160002060008201518160000160006101000a81548173ffffffffffffffffffffffffffffffffffffffff021916908373ffffffffffffffffffffffffffffffffffffffff16021790555060208201518160010190805190602001906104d89291906106dc565b5060408201518160020155905050610509604051806060016040528060248152602001610da56024913933856105fe565b610513600061069d565b7f43fec11134a36b976a658db5c8f54717e891f7991d13b8c1189f7fedfc0ba34333858460006040516105499493929190610cf8565b60405180910390a150505050565b6105ed8160405160240161056b9190610d44565b6040516020818303038152906040527f41304fac000000000000000000000000000000000000000000000000000000007bffffffffffffffffffffffffffffffffffffffffffffffffffffffff19166020820180517bffffffffffffffffffffffffffffffffffffffffffffffffffffffff83818316178352505050506106b3565b50565b600081600001549050919050565b61069883838360405160240161061693929190610d66565b6040516020818303038152906040527f0d26b925000000000000000000000000000000000000000000000000000000007bffffffffffffffffffffffffffffffffffffffffffffffffffffffff19166020820180517bffffffffffffffffffffffffffffffffffffffffffffffffffffffff83818316178352505050506106b3565b505050565b6001816000016000828254019250508190555050565b60008151905060006a636f6e736f6c652e6c6f679050602083016000808483855afa5050505050565b8280546106e890610c81565b90600052602060002090601f01602090048101928261070a5760008555610751565b82601f1061072357805160ff1916838001178555610751565b82800160010185558215610751579182015b82811115610750578251825591602001919060010190610735565b5b50905061075e9190610762565b5090565b5b8082111561077b576000816000905550600101610763565b5090565b600081519050919050565b600082825260208201905092915050565b6000819050602082019050919050565b600073ffffffffffffffffffffffffffffffffffffffff82169050919050565b60006107d6826107ab565b9050919050565b6107e6816107cb565b82525050565b600081519050919050565b600082825260208201905092915050565b60005b8381101561082657808201518184015260208101905061080b565b83811115610835576000848401525b50505050565b6000601f19601f8301169050919050565b6000610857826107ec565b61086181856107f7565b9350610871818560208601610808565b61087a8161083b565b840191505092915050565b6000819050919050565b61089881610885565b82525050565b60006060830160008301516108b660008601826107dd565b50602083015184820360208601526108ce828261084c565b91505060408301516108e3604086018261088f565b508091505092915050565b60006108fa838361089e565b905092915050565b6000602082019050919050565b600061091a8261077f565b610924818561078a565b9350836020820285016109368561079b565b8060005b85811015610972578484038952815161095385826108ee565b945061095e83610902565b925060208a0199505060018101905061093a565b50829750879550505050505092915050565b6000602082019050818103600083015261099e818461090f565b905092915050565b6000604051905090565b600080fd5b600080fd5b6109c381610885565b81146109ce57600080fd5b50565b6000813590506109e0816109ba565b92915050565b6000602082840312156109fc576109fb6109b0565b5b6000610a0a848285016109d1565b91505092915050565b610a1c81610885565b82525050565b6000602082019050610a376000830184610a13565b92915050565b610a46816107cb565b82525050565b600082825260208201905092915050565b6000610a68826107ec565b610a728185610a4c565b9350610a82818560208601610808565b610a8b8161083b565b840191505092915050565b6000606082019050610aab6000830186610a3d565b8181036020830152610abd8185610a5d565b9050610acc6040830184610a13565b949350505050565b600080fd5b600080fd5b7f4e487b7100000000000000000000000000000000000000000000000000000000600052604160045260246000fd5b610b168261083b565b810181811067ffffffffffffffff82111715610b3557610b34610ade565b5b80604052505050565b6000610b486109a6565b9050610b548282610b0d565b919050565b600067ffffffffffffffff821115610b7457610b73610ade565b5b610b7d8261083b565b9050602081019050919050565b82818337600083830152505050565b6000610bac610ba784610b59565b610b3e565b905082815260208101848484011115610bc857610bc7610ad9565b5b610bd3848285610b8a565b509392505050565b600082601f830112610bf057610bef610ad4565b5b8135610c00848260208601610b99565b91505092915050565b600060208284031215610c1f57610c1e6109b0565b5b600082013567ffffffffffffffff811115610c3d57610c3c6109b5565b5b610c4984828501610bdb565b91505092915050565b7f4e487b7100000000000000000000000000000000000000000000000000000000600052602260045260246000fd5b60006002820490506001821680610c9957607f821691505b60208210811415610cad57610cac610c52565b5b50919050565b6000819050919050565b6000819050919050565b6000610ce2610cdd610cd884610cb3565b610cbd565b610885565b9050919050565b610cf281610cc7565b82525050565b6000608082019050610d0d6000830187610a3d565b8181036020830152610d1f8186610a5d565b9050610d2e6040830185610a13565b610d3b6060830184610ce9565b95945050505050565b60006020820190508181036000830152610d5e8184610a5d565b905092915050565b60006060820190508181036000830152610d808186610a5d565b9050610d8f6020830185610a3d565b610d9c6040830184610a13565b94935050505056fe747765657420627920257320772f20494420257320686173206265656e20706f73746564a2646970667358221220a486e43b51706ae13627d88642257158f35b5eef3ff58d3d2c6286e40647851b64736f6c63430008090033",
  "linkReferences": {},
  "deployedLinkReferences": {}
}