{
  "_format": "hh-sol-artifact-1",
  "contractName": "Web3SNS",
  "sourceName": "contracts/Web3SNS.sol",
  "abi": [
    {
      "anonymous": false,
      "inputs": [
        {
          "indexed": false,
          "internalType": "uint256",
          "name": "postId",
          "type": "uint256"
        },
        {
          "indexed": false,
          "internalType": "address",
          "name": "from",
          "type": "address"
        },
        {
          "indexed": false,
          "internalType": "string",
          "name": "message",
          "type": "string"
        },
        {
          "indexed": false,
          "internalType": "uint256",
          "name": "timestamp",
          "type": "uint256"
        },
        {
          "indexed": false,
          "internalType": "uint256",
          "name": "likes",
          "type": "uint256"
        }
      ],
      "name": "NewLike",
      "type": "event"
    },
    {
      "anonymous": false,
      "inputs": [
        {
          "indexed": false,
          "internalType": "uint256",
          "name": "postId",
          "type": "uint256"
        },
        {
          "indexed": false,
          "internalType": "address",
          "name": "from",
          "type": "address"
        },
        {
          "indexed": false,
          "internalType": "string",
          "name": "message",
          "type": "string"
        },
        {
          "indexed": false,
          "internalType": "uint256",
          "name": "timestamp",
          "type": "uint256"
        },
        {
          "indexed": false,
          "internalType": "uint256",
          "name": "likes",
          "type": "uint256"
        }
      ],
      "name": "NewPost",
      "type": "event"
    },
    {
      "inputs": [
        {
          "internalType": "uint256",
          "name": "",
          "type": "uint256"
        }
      ],
      "name": "TweetIdToPost",
      "outputs": [
        {
          "internalType": "uint256",
          "name": "postId",
          "type": "uint256"
        },
        {
          "internalType": "address",
          "name": "from",
          "type": "address"
        },
        {
          "internalType": "string",
          "name": "message",
          "type": "string"
        },
        {
          "internalType": "uint256",
          "name": "timestamp",
          "type": "uint256"
        },
        {
          "internalType": "uint256",
          "name": "likes",
          "type": "uint256"
        }
      ],
      "stateMutability": "view",
      "type": "function"
    },
    {
      "inputs": [],
      "name": "getAllPosts",
      "outputs": [
        {
          "components": [
            {
              "internalType": "uint256",
              "name": "postId",
              "type": "uint256"
            },
            {
              "internalType": "address",
              "name": "from",
              "type": "address"
            },
            {
              "internalType": "string",
              "name": "message",
              "type": "string"
            },
            {
              "internalType": "uint256",
              "name": "timestamp",
              "type": "uint256"
            },
            {
              "internalType": "uint256",
              "name": "likes",
              "type": "uint256"
            }
          ],
          "internalType": "struct Web3SNS.Post[]",
          "name": "",
          "type": "tuple[]"
        }
      ],
      "stateMutability": "view",
      "type": "function"
    },
    {
      "inputs": [
        {
          "internalType": "uint256",
          "name": "_index",
          "type": "uint256"
        }
      ],
      "name": "likesIncrement",
      "outputs": [],
      "stateMutability": "nonpayable",
      "type": "function"
    },
    {
      "inputs": [
        {
          "internalType": "string",
          "name": "_message",
          "type": "string"
        }
      ],
      "name": "tweet",
      "outputs": [],
      "stateMutability": "nonpayable",
      "type": "function"
    }
  ],
  "bytecode": "0x608060405234801561001057600080fd5b5061112d806100206000396000f3fe608060405234801561001057600080fd5b506004361061004c5760003560e01c806330561100146100515780638464a7c71461006f578063f6eb36cd1461008b578063fb46d4c5146100bf575b600080fd5b6100596100db565b6040516100669190610bac565b60405180910390f35b61008960048036038101906100849190610c0e565b610240565b005b6100a560048036038101906100a09190610c0e565b610390565b6040516100b6959493929190610ca3565b60405180910390f35b6100d960048036038101906100d49190610e32565b61046e565b005b60606001805480602002602001604051908101604052809291908181526020016000905b8282101561023757838290600052602060002090600502016040518060a0016040529081600082015481526020016001820160009054906101000a900473ffffffffffffffffffffffffffffffffffffffff1673ffffffffffffffffffffffffffffffffffffffff1673ffffffffffffffffffffffffffffffffffffffff16815260200160028201805461019290610eaa565b80601f01602080910402602001604051908101604052809291908181526020018280546101be90610eaa565b801561020b5780601f106101e05761010080835404028352916020019161020b565b820191906000526020600020905b8154815290600101906020018083116101ee57829003601f168201915b5050505050815260200160038201548152602001600482015481525050815260200190600101906100ff565b50505050905090565b60026000828152602001908152602001600020600401600081548092919061026790610f0b565b91905055506102c16040518060400160405280601081526020017f4e6577204c696b657320436f756e743a0000000000000000000000000000000081525060026000848152602001908152602001600020600401546106bd565b7f01a00d552132e138f9c633d7a184fa5f5be81fcd62eda4eb7b3ab03e327fc4dc60026000838152602001908152602001600020600001546002600084815260200190815260200160002060010160009054906101000a900473ffffffffffffffffffffffffffffffffffffffff166002600085815260200190815260200160002060020160026000868152602001908152602001600020600301546002600087815260200190815260200160002060040154604051610385959493929190610fe9565b60405180910390a150565b60026020528060005260406000206000915090508060000154908060010160009054906101000a900473ffffffffffffffffffffffffffffffffffffffff16908060020180546103df90610eaa565b80601f016020809104026020016040519081016040528092919081815260200182805461040b90610eaa565b80156104585780601f1061042d57610100808354040283529160200191610458565b820191906000526020600020905b81548152906001019060200180831161043b57829003601f168201915b5050505050908060030154908060040154905085565b6104ac6040518060400160405280600f81526020017f6d616b696e672074776565742e2e2e0000000000000000000000000000000000815250610759565b60006104b860006107f2565b905060004290506000806040518060a001604052808581526020013373ffffffffffffffffffffffffffffffffffffffff16815260200186815260200184815260200183815250905060018190806001815401808255809150506001900390600052602060002090600502016000909190919091506000820151816000015560208201518160010160006101000a81548173ffffffffffffffffffffffffffffffffffffffff021916908373ffffffffffffffffffffffffffffffffffffffff160217905550604082015181600201908051906020019061059a9291906108de565b506060820151816003015560808201518160040155505080600260008681526020019081526020016000206000820151816000015560208201518160010160006101000a81548173ffffffffffffffffffffffffffffffffffffffff021916908373ffffffffffffffffffffffffffffffffffffffff16021790555060408201518160020190805190602001906106329291906108de565b50606082015181600301556080820151816004015590505061066d6040518060600160405280602481526020016110d4602491393386610800565b610677600061089f565b7fe535a02a01920b38061e7785d5f3d4688d895a51cc21bb9e09b59a11d3befcfb84338786866040516106ae959493929190610ca3565b60405180910390a15050505050565b61075582826040516024016106d3929190611043565b6040516020818303038152906040527fb60e72cc000000000000000000000000000000000000000000000000000000007bffffffffffffffffffffffffffffffffffffffffffffffffffffffff19166020820180517bffffffffffffffffffffffffffffffffffffffffffffffffffffffff83818316178352505050506108b5565b5050565b6107ef8160405160240161076d9190611073565b6040516020818303038152906040527f41304fac000000000000000000000000000000000000000000000000000000007bffffffffffffffffffffffffffffffffffffffffffffffffffffffff19166020820180517bffffffffffffffffffffffffffffffffffffffffffffffffffffffff83818316178352505050506108b5565b50565b600081600001549050919050565b61089a83838360405160240161081893929190611095565b6040516020818303038152906040527f0d26b925000000000000000000000000000000000000000000000000000000007bffffffffffffffffffffffffffffffffffffffffffffffffffffffff19166020820180517bffffffffffffffffffffffffffffffffffffffffffffffffffffffff83818316178352505050506108b5565b505050565b6001816000016000828254019250508190555050565b60008151905060006a636f6e736f6c652e6c6f679050602083016000808483855afa5050505050565b8280546108ea90610eaa565b90600052602060002090601f01602090048101928261090c5760008555610953565b82601f1061092557805160ff1916838001178555610953565b82800160010185558215610953579182015b82811115610952578251825591602001919060010190610937565b5b5090506109609190610964565b5090565b5b8082111561097d576000816000905550600101610965565b5090565b600081519050919050565b600082825260208201905092915050565b6000819050602082019050919050565b6000819050919050565b6109c0816109ad565b82525050565b600073ffffffffffffffffffffffffffffffffffffffff82169050919050565b60006109f1826109c6565b9050919050565b610a01816109e6565b82525050565b600081519050919050565b600082825260208201905092915050565b60005b83811015610a41578082015181840152602081019050610a26565b83811115610a50576000848401525b50505050565b6000601f19601f8301169050919050565b6000610a7282610a07565b610a7c8185610a12565b9350610a8c818560208601610a23565b610a9581610a56565b840191505092915050565b600060a083016000830151610ab860008601826109b7565b506020830151610acb60208601826109f8565b5060408301518482036040860152610ae38282610a67565b9150506060830151610af860608601826109b7565b506080830151610b0b60808601826109b7565b508091505092915050565b6000610b228383610aa0565b905092915050565b6000602082019050919050565b6000610b4282610981565b610b4c818561098c565b935083602082028501610b5e8561099d565b8060005b85811015610b9a5784840389528151610b7b8582610b16565b9450610b8683610b2a565b925060208a01995050600181019050610b62565b50829750879550505050505092915050565b60006020820190508181036000830152610bc68184610b37565b905092915050565b6000604051905090565b600080fd5b600080fd5b610beb816109ad565b8114610bf657600080fd5b50565b600081359050610c0881610be2565b92915050565b600060208284031215610c2457610c23610bd8565b5b6000610c3284828501610bf9565b91505092915050565b610c44816109ad565b82525050565b610c53816109e6565b82525050565b600082825260208201905092915050565b6000610c7582610a07565b610c7f8185610c59565b9350610c8f818560208601610a23565b610c9881610a56565b840191505092915050565b600060a082019050610cb86000830188610c3b565b610cc56020830187610c4a565b8181036040830152610cd78186610c6a565b9050610ce66060830185610c3b565b610cf36080830184610c3b565b9695505050505050565b600080fd5b600080fd5b7f4e487b7100000000000000000000000000000000000000000000000000000000600052604160045260246000fd5b610d3f82610a56565b810181811067ffffffffffffffff82111715610d5e57610d5d610d07565b5b80604052505050565b6000610d71610bce565b9050610d7d8282610d36565b919050565b600067ffffffffffffffff821115610d9d57610d9c610d07565b5b610da682610a56565b9050602081019050919050565b82818337600083830152505050565b6000610dd5610dd084610d82565b610d67565b905082815260208101848484011115610df157610df0610d02565b5b610dfc848285610db3565b509392505050565b600082601f830112610e1957610e18610cfd565b5b8135610e29848260208601610dc2565b91505092915050565b600060208284031215610e4857610e47610bd8565b5b600082013567ffffffffffffffff811115610e6657610e65610bdd565b5b610e7284828501610e04565b91505092915050565b7f4e487b7100000000000000000000000000000000000000000000000000000000600052602260045260246000fd5b60006002820490506001821680610ec257607f821691505b60208210811415610ed657610ed5610e7b565b5b50919050565b7f4e487b7100000000000000000000000000000000000000000000000000000000600052601160045260246000fd5b6000610f16826109ad565b91507fffffffffffffffffffffffffffffffffffffffffffffffffffffffffffffffff821415610f4957610f48610edc565b5b600182019050919050565b60008190508160005260206000209050919050565b60008154610f7681610eaa565b610f808186610c59565b94506001821660008114610f9b5760018114610fad57610fe0565b60ff1983168652602086019350610fe0565b610fb685610f54565b60005b83811015610fd857815481890152600182019150602081019050610fb9565b808801955050505b50505092915050565b600060a082019050610ffe6000830188610c3b565b61100b6020830187610c4a565b818103604083015261101d8186610f69565b905061102c6060830185610c3b565b6110396080830184610c3b565b9695505050505050565b6000604082019050818103600083015261105d8185610c6a565b905061106c6020830184610c3b565b9392505050565b6000602082019050818103600083015261108d8184610c6a565b905092915050565b600060608201905081810360008301526110af8186610c6a565b90506110be6020830185610c4a565b6110cb6040830184610c3b565b94935050505056fe747765657420627920257320772f20494420257320686173206265656e20706f73746564a264697066735822122022e945f49e4530fae42ddeb6da738b58f068d8b840a3e8a3bd12f432afc3ecff64736f6c63430008090033",
  "linkReferences": {},
  "deployedLinkReferences": {}
}