{
  "_format": "hh-sol-artifact-1",
  "contractName": "Web3SNS",
  "sourceName": "contracts/Web3SNS.sol",
  "abi": [
    {
      "inputs": [],
      "stateMutability": "payable",
      "type": "constructor"
    },
    {
      "anonymous": false,
      "inputs": [
        {
          "indexed": false,
          "internalType": "uint256",
          "name": "postId",
          "type": "uint256"
        },
        {
          "indexed": false,
          "internalType": "address",
          "name": "from",
          "type": "address"
        },
        {
          "indexed": false,
          "internalType": "string",
          "name": "message",
          "type": "string"
        },
        {
          "indexed": false,
          "internalType": "uint256",
          "name": "timestamp",
          "type": "uint256"
        },
        {
          "indexed": false,
          "internalType": "uint256",
          "name": "likes",
          "type": "uint256"
        },
        {
          "indexed": false,
          "internalType": "bool",
          "name": "likeFlag",
          "type": "bool"
        }
      ],
      "name": "NewLike",
      "type": "event"
    },
    {
      "anonymous": false,
      "inputs": [
        {
          "indexed": false,
          "internalType": "uint256",
          "name": "postId",
          "type": "uint256"
        },
        {
          "indexed": false,
          "internalType": "address",
          "name": "from",
          "type": "address"
        },
        {
          "indexed": false,
          "internalType": "string",
          "name": "message",
          "type": "string"
        },
        {
          "indexed": false,
          "internalType": "uint256",
          "name": "timestamp",
          "type": "uint256"
        },
        {
          "indexed": false,
          "internalType": "uint256",
          "name": "likes",
          "type": "uint256"
        },
        {
          "indexed": false,
          "internalType": "bool",
          "name": "likeFlag",
          "type": "bool"
        }
      ],
      "name": "NewPost",
      "type": "event"
    },
    {
      "inputs": [],
      "name": "getAllPosts",
      "outputs": [
        {
          "components": [
            {
              "internalType": "uint256",
              "name": "postId",
              "type": "uint256"
            },
            {
              "internalType": "address",
              "name": "from",
              "type": "address"
            },
            {
              "internalType": "string",
              "name": "message",
              "type": "string"
            },
            {
              "internalType": "uint256",
              "name": "timestamp",
              "type": "uint256"
            },
            {
              "internalType": "uint256",
              "name": "likes",
              "type": "uint256"
            },
            {
              "internalType": "bool",
              "name": "likeFlag",
              "type": "bool"
            }
          ],
          "internalType": "struct Web3SNS.Post[]",
          "name": "",
          "type": "tuple[]"
        }
      ],
      "stateMutability": "view",
      "type": "function"
    },
    {
      "inputs": [
        {
          "internalType": "uint256",
          "name": "_index",
          "type": "uint256"
        }
      ],
      "name": "likesDiscrement",
      "outputs": [],
      "stateMutability": "nonpayable",
      "type": "function"
    },
    {
      "inputs": [
        {
          "internalType": "uint256",
          "name": "_index",
          "type": "uint256"
        }
      ],
      "name": "likesIncrement",
      "outputs": [],
      "stateMutability": "nonpayable",
      "type": "function"
    },
    {
      "inputs": [
        {
          "internalType": "address",
          "name": "to",
          "type": "address"
        }
      ],
      "name": "sendEther",
      "outputs": [],
      "stateMutability": "payable",
      "type": "function"
    },
    {
      "inputs": [
        {
          "internalType": "string",
          "name": "_message",
          "type": "string"
        }
      ],
      "name": "tweet",
      "outputs": [],
      "stateMutability": "nonpayable",
      "type": "function"
    },
    {
      "inputs": [
        {
          "internalType": "address",
          "name": "",
          "type": "address"
        },
        {
          "internalType": "uint256",
          "name": "",
          "type": "uint256"
        }
      ],
      "name": "userToLikedList",
      "outputs": [
        {
          "internalType": "uint256",
          "name": "",
          "type": "uint256"
        }
      ],
      "stateMutability": "view",
      "type": "function"
    }
  ],
  "bytecode": "0x60806040526200004f6040518060400160405280601181526020017f636f6e73747275637420737563636573730000000000000000000000000000008152506200005560201b62000f1d1760201c565b620001e9565b620000f5816040516024016200006c9190620001c5565b6040516020818303038152906040527f41304fac000000000000000000000000000000000000000000000000000000007bffffffffffffffffffffffffffffffffffffffffffffffffffffffff19166020820180517bffffffffffffffffffffffffffffffffffffffffffffffffffffffff8381831617835250505050620000f860201b60201c565b50565b60008151905060006a636f6e736f6c652e6c6f679050602083016000808483855afa5050505050565b600081519050919050565b600082825260208201905092915050565b60005b838110156200015d57808201518184015260208101905062000140565b838111156200016d576000848401525b50505050565b6000601f19601f8301169050919050565b6000620001918262000121565b6200019d81856200012c565b9350620001af8185602086016200013d565b620001ba8162000173565b840191505092915050565b60006020820190508181036000830152620001e1818462000184565b905092915050565b611d8a80620001f96000396000f3fe6080604052600436106100555760003560e01c8063305611001461005a57806348c981e2146100855780634b5cb3ab146100a1578063776a6596146100ca5780638464a7c714610107578063fb46d4c514610130575b600080fd5b34801561006657600080fd5b5061006f610159565b60405161007c91906114d6565b60405180910390f35b61009f600480360381019061009a9190611538565b61040d565b005b3480156100ad57600080fd5b506100c860048036038101906100c39190611591565b61050c565b005b3480156100d657600080fd5b506100f160048036038101906100ec91906115be565b61096a565b6040516100fe919061160d565b60405180910390f35b34801561011357600080fd5b5061012e60048036038101906101299190611591565b61099b565b005b34801561013c57600080fd5b506101576004803603810190610152919061175d565b610d3a565b005b606060006001805480602002602001604051908101604052809291908181526020016000905b828210156102d257838290600052602060002090600602016040518060c0016040529081600082015481526020016001820160009054906101000a900473ffffffffffffffffffffffffffffffffffffffff1673ffffffffffffffffffffffffffffffffffffffff1673ffffffffffffffffffffffffffffffffffffffff168152602001600282018054610212906117d5565b80601f016020809104026020016040519081016040528092919081815260200182805461023e906117d5565b801561028b5780601f106102605761010080835404028352916020019161028b565b820191906000526020600020905b81548152906001019060200180831161026e57829003601f168201915b5050505050815260200160038201548152602001600482015481526020016005820160009054906101000a900460ff1615151515815250508152602001906001019061017f565b50505050905060005b81518110156104055760005b600260003373ffffffffffffffffffffffffffffffffffffffff1673ffffffffffffffffffffffffffffffffffffffff168152602001908152602001600020805490508110156103f157600260003373ffffffffffffffffffffffffffffffffffffffff1673ffffffffffffffffffffffffffffffffffffffff168152602001908152602001600020818154811061038257610381611807565b5b90600052602060002001548383815181106103a05761039f611807565b5b60200260200101516000015114156103de5760018383815181106103c7576103c6611807565b5b602002602001015160a00190151590811515815250505b80806103e990611865565b9150506102e7565b5080806103fd90611865565b9150506102db565b508091505090565b6000655af3107a400090504781111561045b576040517f08c379a00000000000000000000000000000000000000000000000000000000081526004016104529061190b565b60405180910390fd5b60008273ffffffffffffffffffffffffffffffffffffffff16826040516104819061195c565b60006040518083038185875af1925050503d80600081146104be576040519150601f19603f3d011682016040523d82523d6000602084013e6104c3565b606091505b5050905080610507576040517f08c379a00000000000000000000000000000000000000000000000000000000081526004016104fe906119bd565b60405180910390fd5b505050565b600181815481106105205761051f611807565b5b90600052602060002090600602016004016000815480929190610542906119dd565b91905055506105756001828154811061055e5761055d611807565b5b906000526020600020906006020160040154610fb6565b60006001828154811061058b5761058a611807565b5b906000526020600020906006020160050160006101000a81548160ff0219169083151502179055506000600260003373ffffffffffffffffffffffffffffffffffffffff1673ffffffffffffffffffffffffffffffffffffffff168152602001908152602001600020805490509050600080600090505b828110156106885783600260003373ffffffffffffffffffffffffffffffffffffffff1673ffffffffffffffffffffffffffffffffffffffff168152602001908152602001600020828154811061065c5761065b611807565b5b9060005260206000200154141561067557809150610688565b808061068090611865565b915050610602565b50600260003373ffffffffffffffffffffffffffffffffffffffff1673ffffffffffffffffffffffffffffffffffffffff1681526020019081526020016000206001836106d59190611a07565b815481106106e6576106e5611807565b5b9060005260206000200154600260003373ffffffffffffffffffffffffffffffffffffffff1673ffffffffffffffffffffffffffffffffffffffff168152602001908152602001600020828154811061074257610741611807565b5b9060005260206000200181905550600260003373ffffffffffffffffffffffffffffffffffffffff1673ffffffffffffffffffffffffffffffffffffffff16815260200190815260200160002080548061079f5761079e611a3b565b5b6001900381819060005260206000200160009055905561081a6040518060400160405280601881526020017f4e6577204c696b657320436f756e743a257320627920257300000000000000008152506001858154811061080257610801611807565b5b9060005260206000209060060201600401543361104f565b7f0ec8f735e631427d19da53ff533489d09c9437913f6b6d37ac2882fdecefd4ee6001848154811061084f5761084e611807565b5b9060005260206000209060060201600001546001858154811061087557610874611807565b5b906000526020600020906006020160010160009054906101000a900473ffffffffffffffffffffffffffffffffffffffff16600186815481106108bb576108ba611807565b5b9060005260206000209060060201600201600187815481106108e0576108df611807565b5b9060005260206000209060060201600301546001888154811061090657610905611807565b5b9060005260206000209060060201600401546001898154811061092c5761092b611807565b5b906000526020600020906006020160050160009054906101000a900460ff1660405161095d96959493929190611b1d565b60405180910390a1505050565b6002602052816000526040600020818154811061098657600080fd5b90600052602060002001600091509150505481565b60005b600260003373ffffffffffffffffffffffffffffffffffffffff1673ffffffffffffffffffffffffffffffffffffffff16815260200190815260200160002080549050811015610aa8576000600260003373ffffffffffffffffffffffffffffffffffffffff1673ffffffffffffffffffffffffffffffffffffffff1681526020019081526020016000208281548110610a3b57610a3a611807565b5b90600052602060002001549050610a5181610fb6565b82811415610a94576040517f08c379a0000000000000000000000000000000000000000000000000000000008152600401610a8b90611bd1565b60405180910390fd5b508080610aa090611865565b91505061099e565b5060018181548110610abd57610abc611807565b5b90600052602060002090600602016004016000815480929190610adf90611865565b91905055506001808281548110610af957610af8611807565b5b906000526020600020906006020160050160006101000a81548160ff021916908315150217905550600260003373ffffffffffffffffffffffffffffffffffffffff1673ffffffffffffffffffffffffffffffffffffffff168152602001908152602001600020819080600181540180825580915050600190039060005260206000200160009091909190915055610bec6040518060400160405280601881526020017f4e6577204c696b657320436f756e743a2573206279202573000000000000000081525060018381548110610bd457610bd3611807565b5b9060005260206000209060060201600401543361104f565b7f0ec8f735e631427d19da53ff533489d09c9437913f6b6d37ac2882fdecefd4ee60018281548110610c2157610c20611807565b5b90600052602060002090600602016000015460018381548110610c4757610c46611807565b5b906000526020600020906006020160010160009054906101000a900473ffffffffffffffffffffffffffffffffffffffff1660018481548110610c8d57610c8c611807565b5b906000526020600020906006020160020160018581548110610cb257610cb1611807565b5b90600052602060002090600602016003015460018681548110610cd857610cd7611807565b5b90600052602060002090600602016004015460018781548110610cfe57610cfd611807565b5b906000526020600020906006020160050160009054906101000a900460ff16604051610d2f96959493929190611b1d565b60405180910390a150565b610d786040518060400160405280600f81526020017f6d616b696e672074776565742e2e2e0000000000000000000000000000000000815250610f1d565b6000610d8460006110ee565b9050600042905060008060006040518060c001604052808681526020013373ffffffffffffffffffffffffffffffffffffffff168152602001878152602001858152602001848152602001831515815250905060018190806001815401808255809150506001900390600052602060002090600602016000909190919091506000820151816000015560208201518160010160006101000a81548173ffffffffffffffffffffffffffffffffffffffff021916908373ffffffffffffffffffffffffffffffffffffffff1602179055506040820151816002019080519060200190610e709291906111da565b50606082015181600301556080820151816004015560a08201518160050160006101000a81548160ff0219169083151502179055505050610eca604051806060016040528060248152602001611d316024913933876110fc565b610ed4600061119b565b7fff464ca6ea0ebd29eb42fa1f5df521f2909ad04867e2fff17674d6e038fd7597853388878787604051610f0d96959493929190611c2a565b60405180910390a1505050505050565b610fb381604051602401610f319190611c92565b6040516020818303038152906040527f41304fac000000000000000000000000000000000000000000000000000000007bffffffffffffffffffffffffffffffffffffffffffffffffffffffff19166020820180517bffffffffffffffffffffffffffffffffffffffffffffffffffffffff83818316178352505050506111b1565b50565b61104c81604051602401610fca919061160d565b6040516020818303038152906040527ff82c50f1000000000000000000000000000000000000000000000000000000007bffffffffffffffffffffffffffffffffffffffffffffffffffffffff19166020820180517bffffffffffffffffffffffffffffffffffffffffffffffffffffffff83818316178352505050506111b1565b50565b6110e983838360405160240161106793929190611cb4565b6040516020818303038152906040527f1c7ec448000000000000000000000000000000000000000000000000000000007bffffffffffffffffffffffffffffffffffffffffffffffffffffffff19166020820180517bffffffffffffffffffffffffffffffffffffffffffffffffffffffff83818316178352505050506111b1565b505050565b600081600001549050919050565b61119683838360405160240161111493929190611cf2565b6040516020818303038152906040527f0d26b925000000000000000000000000000000000000000000000000000000007bffffffffffffffffffffffffffffffffffffffffffffffffffffffff19166020820180517bffffffffffffffffffffffffffffffffffffffffffffffffffffffff83818316178352505050506111b1565b505050565b6001816000016000828254019250508190555050565b60008151905060006a636f6e736f6c652e6c6f679050602083016000808483855afa5050505050565b8280546111e6906117d5565b90600052602060002090601f016020900481019282611208576000855561124f565b82601f1061122157805160ff191683800117855561124f565b8280016001018555821561124f579182015b8281111561124e578251825591602001919060010190611233565b5b50905061125c9190611260565b5090565b5b80821115611279576000816000905550600101611261565b5090565b600081519050919050565b600082825260208201905092915050565b6000819050602082019050919050565b6000819050919050565b6112bc816112a9565b82525050565b600073ffffffffffffffffffffffffffffffffffffffff82169050919050565b60006112ed826112c2565b9050919050565b6112fd816112e2565b82525050565b600081519050919050565b600082825260208201905092915050565b60005b8381101561133d578082015181840152602081019050611322565b8381111561134c576000848401525b50505050565b6000601f19601f8301169050919050565b600061136e82611303565b611378818561130e565b935061138881856020860161131f565b61139181611352565b840191505092915050565b60008115159050919050565b6113b18161139c565b82525050565b600060c0830160008301516113cf60008601826112b3565b5060208301516113e260208601826112f4565b50604083015184820360408601526113fa8282611363565b915050606083015161140f60608601826112b3565b50608083015161142260808601826112b3565b5060a083015161143560a08601826113a8565b508091505092915050565b600061144c83836113b7565b905092915050565b6000602082019050919050565b600061146c8261127d565b6114768185611288565b93508360208202850161148885611299565b8060005b858110156114c457848403895281516114a58582611440565b94506114b083611454565b925060208a0199505060018101905061148c565b50829750879550505050505092915050565b600060208201905081810360008301526114f08184611461565b905092915050565b6000604051905090565b600080fd5b600080fd5b611515816112e2565b811461152057600080fd5b50565b6000813590506115328161150c565b92915050565b60006020828403121561154e5761154d611502565b5b600061155c84828501611523565b91505092915050565b61156e816112a9565b811461157957600080fd5b50565b60008135905061158b81611565565b92915050565b6000602082840312156115a7576115a6611502565b5b60006115b58482850161157c565b91505092915050565b600080604083850312156115d5576115d4611502565b5b60006115e385828601611523565b92505060206115f48582860161157c565b9150509250929050565b611607816112a9565b82525050565b600060208201905061162260008301846115fe565b92915050565b600080fd5b600080fd5b7f4e487b7100000000000000000000000000000000000000000000000000000000600052604160045260246000fd5b61166a82611352565b810181811067ffffffffffffffff8211171561168957611688611632565b5b80604052505050565b600061169c6114f8565b90506116a88282611661565b919050565b600067ffffffffffffffff8211156116c8576116c7611632565b5b6116d182611352565b9050602081019050919050565b82818337600083830152505050565b60006117006116fb846116ad565b611692565b90508281526020810184848401111561171c5761171b61162d565b5b6117278482856116de565b509392505050565b600082601f83011261174457611743611628565b5b81356117548482602086016116ed565b91505092915050565b60006020828403121561177357611772611502565b5b600082013567ffffffffffffffff81111561179157611790611507565b5b61179d8482850161172f565b91505092915050565b7f4e487b7100000000000000000000000000000000000000000000000000000000600052602260045260246000fd5b600060028204905060018216806117ed57607f821691505b60208210811415611801576118006117a6565b5b50919050565b7f4e487b7100000000000000000000000000000000000000000000000000000000600052603260045260246000fd5b7f4e487b7100000000000000000000000000000000000000000000000000000000600052601160045260246000fd5b6000611870826112a9565b91507fffffffffffffffffffffffffffffffffffffffffffffffffffffffffffffffff8214156118a3576118a2611836565b5b600182019050919050565b600082825260208201905092915050565b7f496e73756666696369656e742046756e64730000000000000000000000000000600082015250565b60006118f56012836118ae565b9150611900826118bf565b602082019050919050565b60006020820190508181036000830152611924816118e8565b9050919050565b600081905092915050565b50565b600061194660008361192b565b915061195182611936565b600082019050919050565b600061196782611939565b9150819050919050565b7f4661696c656420746f2073656e64207469700000000000000000000000000000600082015250565b60006119a76012836118ae565b91506119b282611971565b602082019050919050565b600060208201905081810360008301526119d68161199a565b9050919050565b60006119e8826112a9565b915060008214156119fc576119fb611836565b5b600182039050919050565b6000611a12826112a9565b9150611a1d836112a9565b925082821015611a3057611a2f611836565b5b828203905092915050565b7f4e487b7100000000000000000000000000000000000000000000000000000000600052603160045260246000fd5b611a73816112e2565b82525050565b60008190508160005260206000209050919050565b60008154611a9b816117d5565b611aa581866118ae565b94506001821660008114611ac05760018114611ad257611b05565b60ff1983168652602086019350611b05565b611adb85611a79565b60005b83811015611afd57815481890152600182019150602081019050611ade565b808801955050505b50505092915050565b611b178161139c565b82525050565b600060c082019050611b3260008301896115fe565b611b3f6020830188611a6a565b8181036040830152611b518187611a8e565b9050611b6060608301866115fe565b611b6d60808301856115fe565b611b7a60a0830184611b0e565b979650505050505050565b7f596f7520616c7265616479206c696b6564207468697320706f73740000000000600082015250565b6000611bbb601b836118ae565b9150611bc682611b85565b602082019050919050565b60006020820190508181036000830152611bea81611bae565b9050919050565b6000611bfc82611303565b611c0681856118ae565b9350611c1681856020860161131f565b611c1f81611352565b840191505092915050565b600060c082019050611c3f60008301896115fe565b611c4c6020830188611a6a565b8181036040830152611c5e8187611bf1565b9050611c6d60608301866115fe565b611c7a60808301856115fe565b611c8760a0830184611b0e565b979650505050505050565b60006020820190508181036000830152611cac8184611bf1565b905092915050565b60006060820190508181036000830152611cce8186611bf1565b9050611cdd60208301856115fe565b611cea6040830184611a6a565b949350505050565b60006060820190508181036000830152611d0c8186611bf1565b9050611d1b6020830185611a6a565b611d2860408301846115fe565b94935050505056fe747765657420627920257320772f20494420257320686173206265656e20706f73746564a2646970667358221220d85914ee1e329dfcd72c840875f0e67a0c389bef3c1a276876175e92480d043264736f6c63430008090033",
  "linkReferences": {},
  "deployedLinkReferences": {}
}